:0400000007EF00F016
:100008005E825E92110034EF12F002013205D8A42C
:1000180010EF00F012EF00F02EEF00F030511F0B40
:100028000009D8A41AEF00F01CEF00F02EEF00F042
:10003800428E030E3119D8A424EF00F026EF00F009
:100048002BEF00F0010E00019A6F2EEF00F0000E6A
:1000580000019A6F02013251D8A435EF00F037EF52
:1000680000F0B5EF01F030511F0B020AD8A43FEFA2
:1000780000F041EF00F0B5EF01F034510F0B00092B
:10008800D8B449EF00F04BEF00F0B5EF01F0345170
:100098000F0B176E030E176054EF00F056EF00F0C9
:1000A800B5EF01F0200E5B18D8A45DEF00F05FEF0C
:1000B80000F0B5EF01F0428E34BF65EF00F067EF56
:1000C80000F084EF00F034510F0B176E1750020D3B
:1000D800720EF324D96E000EF420DA6EDECF1CF017
:1000E800DDCF1DF034510F0B176E186A860E1724DA
:1000F800D96E000E1820DA6EDF501B6E9FEF00F0ED
:1001080034510F0B176E1750020D450EF324D96E9C
:10011800000EF420DA6EDECF1CF0DDCF1DF0345176
:100128000F0B176E186A890E1724D96E000E182047
:10013800DA6EDF501B6E1BB0A4EF00F0A6EF00F0E4
:10014800AEEF00F0FB0E1C141C6EFF0E1D141D6E8E
:10015800B3EF00F0040E1C101C6E1D501D6E34BF52
:10016800B8EF00F0BAEF00F0CBEF00F034510F0B0E
:10017800176E1750020D720EF324D96E000EF4207C
:10018800DA6E1CC0DEFF1DC0DDFFDAEF00F034516F
:100198000F0B176E1750020D450EF324D96E000E83
:1001A800F420DA6E1CC0DEFF1DC0DDFF030E31191E
:1001B800D8A4E1EF00F0E3EF00F01DEF01F01CC060
:1001C800D9FF1DC0DAFFDFAEECEF00F0EEEF00F074
:1001D8000FEF01F034BFF3EF00F0F5EF00F003EF9D
:1001E80001F034510F0B176E186A860E1724D96E5A
:1001F800000E1820DA6E0001DF820FEF01F0345193
:100208000F0B176E186A890E1724D96E000E182066
:10021800DA6E0001DF821CC0D9FF1DC0DAFF000EB4
:10022800DB841CC0D9FF1DC0DAFF000EDB8EB5EFE2
:1002380001F0040E1C181C6E1D501D6E1CC0D9FF49
:100248001DC0DAFFDFAE2BEF01F02DEF01F049EF13
:1002580001F01CC0D9FF1DC0DAFF7F0EDF161CC0DD
:10026800D9FF1DC0DAFF000EDB8C000E106E050EE4
:100278000F6E1CC011F01DC012F0000E146E020E9D
:10028800136E86EC0EF04FEF01F01CC0D9FF1DC0B5
:10029800DAFF000EDB8C040E1C181C6E1D501D6E40
:1002A8001BB259EF01F05BEF01F066EF01F01CC0E3
:1002B800D9FF1DC0DAFFDFAE64EF01F066EF01F091
:1002C8009EEF01F0020134BF6CEF01F06EEF01F018
:1002D8007CEF01F034510F0B176E186A860E172445
:1002E800D96E000E1820DA6E0001DF9288EF01F057
:1002F80034510F0B176E186A890E1724D96E000E29
:100308001820DA6E0001DF921CC0D9FF1DC0DAFF89
:100318003B0EDF16000E106E050E0F6E1CC011F09E
:100328001DC012F0000E146E020E136E86EC0EF055
:10033800A4EF01F01CC0D9FF1DC0DAFF3B0EDF1689
:10034800020134510F0B176E186A530E1724196ED9
:100358000F0E18201A6E19C0D9FF1AC0DAFFFE0E48
:10036800DF1612005B50D8A4BCEF01F0BEEF01F01D
:10037800D5EF01F0000E646E000E606E160E616E11
:100388009F0E0F015B6F7B0E606ECCEF01F06486F1
:1003980064A6D1EF01F0D3EF01F0CBEF01F0010E2D
:1003A8005B6E5B04D8A4DBEF01F0DDEF01F0ECEF4E
:1003B80001F064BAE2EF01F0E4EF01F0ECEF01F0D4
:1003C800000E626E000E606E60806088020E5B6ECA
:1003D80062A4F1EF01F0F3EF01F0FDEF01F060A48A
:1003E800F8EF01F0FAEF01F0FDEF01F06294F8EC9C
:1003F80012F064A202EF02F004EF02F007EF02F03D
:10040800A194EAEF02F062A00CEF02F00EEF02F006
:100418001AEF02F060A013EF02F015EF02F01AEFE6
:1004280002F05FEC07F0040E5B6E629062A81FEFAB
:1004380002F021EF02F02AEF02F060A826EF02F0A6
:1004480028EF02F02AEF02F04EEC13F062AC2FEF27
:1004580002F031EF02F05CEF02F060AC36EF02F030
:1004680038EF02F046EF02F0000E106E730E0F6EBA
:10047800000E116E000E126E000E146E010E136E39
:1004880086EC0EF0629C34EC13F05650D8B44FEF63
:1004980002F051EF02F052EF02F056065650D8A47F
:1004A80058EF02F05AEF02F05CEF02F0E7EC0CF0C4
:1004B80062AA61EF02F063EF02F06CEF02F060AA4B
:1004C80068EF02F06AEF02F06CEF02F070EC11F0E6
:1004D80062A271EF02F073EF02F08AEF02F060A2FD
:1004E80078EF02F07AEF02F08AEF02F07F0E106EDA
:1004F8000F68000E116E000E126E000E146E010EC3
:10050800136E86EC0EF0000E0F015F6F040E5B6039
:1005180090EF02F092EF02F095EF02F0A194EAEF6B
:1005280002F060A69AEF02F09CEF02F0E9EF02F009
:10053800000E216E62A6A3EF02F0A5EF02F0E9EF2C
:1005480002F063CF5CF05C30E832E8320F0B576E94
:1005580062965CB4B2EF02F0B4EF02F0BEEF02F0C4
:10056800860E5724D96EDA6A000EDA220001DF708F
:10057800C6EF02F0890E5724D96EDA6A000EDA2225
:100588000001DF705750D8A4CCEF02F0CEEF02F094
:10059800D2EF02F0D0EC0DF0E0EF02F0000E106E9A
:1005A800720E0F6E5C0E116E000E126E000E146E3F
:1005B800000E136E86EC0EF0212A030E2164E7EF7D
:1005C80002F0E9EF02F09EEF02F0A1941200000E93
:1005D800116E000E106E0AC014F00BC015F00A0E52
:1005E8000C18D8A4FAEF02F0FCEF02F069EF03F060
:1005F800270E136E100E126E14C001F015C002F013
:1006080012C003F013C004F065EC10F001C014F040
:1006180002C015F010501110D8A415EF03F017EF11
:1006280003F032EF03F014501510D8B41EEF03F0A6
:1006380020EF03F03EEF03F0AC0E1424D96E000E49
:100648001520DA6E08C0E1FF09C0E2FFDFCFE7FF3F
:10065800000E116E010E106E3EEF03F0AC0E142466
:10066800D96E000E1520DA6E08C0E1FF09C0E2FF5E
:10067800DFCFE7FF14C001F015C002F012C003F08D
:1006880013C004F091EC13F001500A5C146E025090
:100698000B58156E084A092A12C001F013C002F05F
:1006A800000E046E0A0E036E65EC10F001C012F025
:1006B80002C013F012501310D8A465EF03F067EFCF
:1006C80003F000EF03F0E0EF03F008C0D9FF09C022
:1006D800DAFF300EDF6E084A092A08C0D9FF09C0C0
:1006E800DAFF780EDF6E084A092A0AC00DF00BC03F
:1006F8000EF00C0E0F6ED8900E320D320F2E7FEFCB
:1007080003F00F0E0D14146E156AAC0E1424D96E76
:10071800000E1520DA6E08C0E1FF09C0E2FFDFCF46
:10072800E7FF084A092A0AC00DF00BC00EF00EC0F8
:100738000DF00E6A0F0E0D14146E156AAC0E14240B
:10074800D96E000E1520DA6E08C0E1FF09C0E2FF7D
:10075800DFCFE7FF084A092A0AC00DF00BC00EF0E8
:10076800040E0F6ED8900E320D320F2EB6EF03F036
:100778000F0E0D14146E156AAC0E1424D96E000EEB
:100788001520DA6E08C0E1FF09C0E2FFDFCFE7FFFE
:10079800084A092A0F0E0A14146E156AAC0E14249E
:1007A800D96E000E1520DA6E08C0E1FF09C0E2FF1D
:1007B800DFCFE7FF084A092A08C0D9FF09C0DAFFD6
:1007C800DF6A120000018C518D11D8B4EEEF03F0EE
:1007D800F0EF03F0FDEF03F08CC0D9FF8DC0DAFF16
:1007E800DFAEF9EF03F0FBEF03F0FDEF03F0ADEF41
:1007F80004F0030E5A18D8A404EF04F006EF04F02E
:1008080008EF04F0000E5A6E5A50D8A40EEF04F008
:1008180010EF04F012EF04F0ADEF04F0020E5A18D6
:10082800D8A419EF04F01BEF04F02EEF04F0010E2A
:10083800016E000E026E000E036E000E046E020EB4
:10084800A4EC08F001C08CF002C08DF0030E5A6EC3
:10085800ADEF04F05A04D8A434EF04F036EF04F0F6
:10086800ADEF04F0400E53643CEF04F03EEF04F0AB
:1008780042EF04F0400E0D6E44EF04F053C00DF04B
:100888000D50535C536E400E806F020E816F0DC089
:100898000CF09251D8A453EF04F055EF04F07FEF19
:1008A80004F066EF04F083C0D9FF84C0DAFF80C08B
:1008B800E1FF81C0E2FFDFCFE7FF804B812B834B55
:1008C800842B0C060C50D8A46CEF04F06EEF04F0E7
:1008D80057EF04F087EF04F083C0D9FF84C0DAFF34
:1008E80080C0E1FF81C0E2FFDFCFE7FF804B812BB3
:1008F800834B842B0C060C50D8A485EF04F087EFAB
:1009080004F070EF04F05350D8A48DEF04F08FEF8B
:1009180004F09EEF04F0400E0D18D8A496EF04F0F2
:1009280098EF04F09CEF04F0020E5A6E9EEF04F06C
:10093800030E5A6E010E016E400E026E020E036E19
:100948000DC004F0020EA4EC08F001C08CF002C047
:100958008DF0120001C00BF002C00CF0055006101B
:10096800D8A4B9EF04F0BBEF04F0BDEF04F068EFD2
:1009780005F00BC0D9FF0CC0DAFF03C0DFFF05503C
:100988000B24076E06500C20086EFF0E0724D96E44
:10099800FF0E0820DA6E03C0DFFF065007E1030EE2
:1009A800055CD8B0DAEF04F0DCEF04F0DEEF04F019
:1009B80068EF05F020EE01F00B50D9260C50DA2232
:1009C80003C0DFFF20EE02F00B50D9260C50DA22CC
:1009D80003C0DFFF05500B24076E06500C20086E7D
:1009E800FE0E0724D96EFF0E0820DA6E03C0DFFF63
:1009F80005500B24076E06500C20086EFD0E0724C8
:100A0800D96EFF0E0820DA6E03C0DFFF065007E13B
:100A1800070E055CD8B013EF05F015EF05F017EFDA
:100A280005F068EF05F020EE03F00B50D9260C50C6
:100A3800DA2203C0DFFF05500B24076E06500C2096
:100A4800086EFC0E0724D96EFF0E0820DA6E03C06C
:100A5800DFFF065007E1090E055CD8B036EF05F058
:100A680038EF05F03AEF05F068EF05F00BC007F036
:100A78000CC008F0071E081E074A082A030E0714B0
:100A8800096E0A6A09500B260A500C220950055EA5
:100A98000A50065AFC0E0516FF0E06165FEF05F003
:100AA8000BC0D9FF0CC0DAFF03C0DFFF0506D8A0D2
:100AB80006060B4A0C2A05500610D8A466EF05F066
:100AC80068EF05F054EF05F01200000ED36E000E2B
:100AD8007E6E000E7F6E000E946E000E806E000E0D
:100AE800816E000E826E000E926E000E936E240EC2
:100AF800AC6E900EAB6E000EB86E9B0EAF6EE2EC55
:100B08000AF0B6EC01F0800E0C6E010E0D6E400E70
:100B18000E6E2CEC0EF03E6E3E50D8B496EF05F0FB
:100B280098EF05F0F2EF05F0D90E166E3F0E176E2E
:100B38003EC018F0196A010E1A6E100E1B6E8DEC6D
:100B48000FF0D90E166E3F0E176E3EC018F0196AD8
:100B5800000E1B6E010E1A6E000E1D6E100E1C6E1E
:100B6800D4EC12F0000E3D6EE9EF05F0F40E166EAF
:100B78003F0E176E800E3D24D96EDA6A010EDA2216
:100B8800DF503B6E3B50186E196A010E1A6E100E3C
:100B98001B6E8DEC0FF0CA0E166E3F0E176E800E90
:100BA8003D24D96EDA6A010EDA22DF503B6E3B50E3
:100BB800186E196A000E1B6E010E1A6E000E1D6E5D
:100BC800100E1C6ED4EC12F03D2A3E503D5CD8A0AD
:100BD800F0EF05F0F2EF05F0BAEF05F0D9EC13F0FD
:100BE8003C6E3C50D8B4FBEF05F0FDEF05F085EF07
:100BF80005F0CA0E166E3F0E176E3CC018F0196A43
:100C0800000E1B6E010E1A6E000E1D6E100E1C6E6D
:100C1800D4EC12F085EF05F007EF00F0800E02012A
:100C28003019D8A41AEF06F01CEF06F0B9EF06F059
:100C3800C00E426EA0EF06F0760E3F6E3F0E406E7D
:100C4800000E446E120E436EB9EF06F03251D8A46E
:100C580030EF06F032EF06F070EF06F03251020D79
:100C6800C90EF324F66E3E0EF420F76E0900F5CF98
:100C78003FF00A00F5CF40F0020E3F24016E000E4F
:100C88004020026E01C0F6FF02C0F7FFF86A020EAC
:100C9800F76403D00800F55005D0F6CFE1FFF7CF91
:100CA800E2FFE750436E030E3F24016E000E402022
:100CB800026E01C0F6FF02C0F7FFF86A020EF76481
:100CC80003D00800F55005D0F6CFE1FFF7CFE2FFDB
:100CD800E750446EB9EF06F0000E426EB9EF06F029
:100CE800030E32617AEF06F07CEF06F070EF06F043
:100CF8003251020DC30EF324F66E3E0EF420F76E49
:100D08000900F5CF3FF00A00F5CF40F03FC0F6FFED
:100D180040C0F7FFF86A020EF76403D00800F550E8
:100D280005D0F6CFE1FFF7CFE2FFE750016E0150A3
:100D3800436E446AB9EF06F03351016E026A0250FD
:100D4800000AD8B4AAEF06F070EF06F00150010AC5
:100D5800D8B420EF06F0030AD8B42AEF06F0010A47
:100D6800D8B474EF06F070EF06F01200649842BE33
:100D7800C0EF06F0C2EF06F009EF07F000016DAF13
:100D8800C8EF06F0CAEF06F0DDEF06F0020E586E67
:100D98009451D8A4D2EF06F0D4EF06F0D6EF06F0BF
:100DA80036EC0FF0000E0001966F000E976F5EEFA5
:100DB80007F020EE01F04F50D9265050DA22080EE5
:100DC800DF6E20EE02F04F50D9265050DA22300E56
:100DD800DE6E020EDD6E4FC0D9FF50C0DAFF0C0E7A
:100DE800DF6E4FC0D9FF50C0DAFF000EDB8E45C062
:100DF800D9FF46C0DAFF040EDF6E45C0D9FF46C0F2
:100E0800DAFF000EDB8E5EEF07F0020130AF0FEF66
:100E180007F011EF07F02FEF07F0010E586E0001F1
:100E28009551D8A41AEF07F01CEF07F01EEF07F052
:100E380036EC0FF0000E0001966F000E976F5550BC
:100E4800D8A429EF07F02BEF07F05EEF07F0E7ECE7
:100E58000CF05EEF07F0020E586E20EE01F04F50D6
:100E6800D9265050DA22080EDF6E20EE02F04F50DD
:100E7800D9265050DA22300EDE6E020EDD6E4FC0DB
:100E8800D9FF50C0DAFF040EDF6E4FC0D9FF50C043
:100E9800DAFF000EDB8E000E0001966F000E976FD2
:100EA8005550D8A45AEF07F05CEF07F05EEF07F053
:100EB8002BEF07F01200A094000E0F015F6F000ED9
:100EC800626E000E536F540E016E0F0E026E000E0E
:100ED800046E000E036E000E066E020E056EAEEC7A
:100EE80004F0160E616E9F0E0F015B6F7B0E606E35
:100EF800000E0D6E0D50040D000EF324D96E020E77
:100F0800F420DA6EDE6ADE6ADE6ADD6A0D2A0B0E0E
:100F18000D6491EF07F093EF07F07EEF07F0648C14
:100F2800000E0F015C6F6498649C6296000E426E1E
:100F3800000E00016D6F000E6F6F000E6E6F62B6CF
:100F4800A8EF07F0AAEF07F099EF07F0010E976FE7
:100F5800010E966F000E956F000E946F000E996F3C
:100F6800000E0D6E0D50020D450EF324D96E000EC5
:100F7800F420DA6EDE6ADD6A0D50020D720EF3247B
:100F8800D96E000EF420DA6EDE6ADD6A890E0D2451
:100F9800D96EDA6A000EDA22DF6A860E0D24D96E5F
:100FA800DA6A000EDA22DF6A0D2A020E0D64DFEF1C
:100FB80007F0E1EF07F0B6EF07F0080E456E020EF6
:100FC800466E160E0F01536F020E0201036F300EAC
:100FD800026F080E016F040E006F008F000E5D6E29
:100FE800000E00017C6F000E7D6F000E7E6F000EFC
:100FF8007F6F000E936F000E5B6E120020EE01F003
:101008005150D9265250DA22DF50026E02500001A8
:101018006E5D000E6F59D8B014EF08F016EF08F0A7
:1010280018EF08F06EC002F002506E5F000E6F5BA2
:10103800000E016E2FEF08F0380E0124D96EDA6A1F
:10104800020EDA226AC0E1FF6BC0E2FFDFCFE7FFE2
:101058006A4B6B2B012A0250015CD8A036EF08F0CE
:1010680038EF08F020EF08F06E516F11D8B43FEF59
:1010780008F041EF08F07AEF08F020EE01F04F5049
:10108800D9265050DA22080EDF6E20EE02F04F50BB
:10109800D9265050DA22380EDE6E020EDD6E51C0AF
:1010A800D9FF52C0DAFFDFBC5CEF08F05EEF08F052
:1010B8006CEF08F04FC0D9FF50C0DAFF480EDF6E62
:1010C8004FC0D9FF50C0DAFF000EDB8EA3EF08F047
:1010D8004FC0D9FF50C0DAFF080EDF6E4FC0D9FFEE
:1010E80050C0DAFF000EDB8EA3EF08F020EE01F00F
:1010F8004F50D9265050DA22080EDF6E20EE02F04B
:101108004F50D9265050DA22300EDE6E020EDD6EB8
:101118004FC0D9FF50C0DAFF040EDF6E4FC0D9FFB1
:1011280050C0DAFF000EDB8E6D9F5550D8A49FEF9C
:1011380008F0A1EF08F0A3EF08F0E7EC0CF01200BC
:10114800096E0150D8B4ABEF08F0ADEF08F0BBEF73
:1011580008F00950020D450EF324D96E000EF42054
:10116800DA6EDECF0AF0DDCF0BF0C7EF08F00950DA
:10117800020D720EF324D96E000EF420DA6EDECF63
:101188000AF0DDCF0BF00A500B10D8A4CEEF08F010
:10119800D0EF08F0D6EF08F0000E016E000E026ED8
:1011A80042EF09F020EE02F00A50D9260B50DA225D
:1011B80002C0DEFF03C0DDFF20EE01F00A50D92691
:1011C8000B50DA2204C0DFFF0AC0D9FF0BC0DAFFD8
:1011D800400EDF160AC0D9FF0BC0DAFF000EDB860F
:1011E8000AC0D9FF0BC0DAFF000EDB8E0150D8B45D
:1011F80000EF09F002EF09F021EF09F00950020DA4
:10120800450EF324D96E000EF420DA6EDECF05F019
:10121800DDCF06F0040E0518076E0650086E09505B
:10122800020D450EF324D96E000EF420DA6E07C0C5
:10123800DEFF08C0DDFF3EEF09F00950020D720E17
:10124800F324D96E000EF420DA6EDECF05F0DDCF80
:1012580006F0040E0518076E0650086E0950020DB8
:10126800720EF324D96E000EF420DA6E07C0DEFF8A
:1012780008C0DDFF0AC001F00BC002F01200000E2A
:101288000201386F000E396FA7EF09F0428E000196
:101298009A05D8A452EF09F054EF09F0C1EF09F00C
:1012A80002013883C1EF09F0428EC1EF09F0428E86
:1012B80034510F0B0009D8B464EF09F066EF09F058
:1012C800C1EF09F034BF6BEF09F06DEF09F07EEF65
:1012D80009F034510F0B016E0150020D720EF32408
:1012E800D96E000EF420DA6EDECF03F0DDCF04F005
:1012F8008DEF09F034510F0B016E0150020D450EB0
:10130800F324D96E000EF420DA6EDECF03F0DDCFC1
:1013180004F003C0D9FF04C0DAFFDFAE96EF09F08E
:1013280098EF09F0C1EF09F003C0D9FF04C0DAFF54
:10133800DFA4A1EF09F0A3EF09F0C1EF09F0010E56
:10134800386FC1EF09F030511F0B016E026A02506D
:10135800000AD8B4B2EF09F0C1EF09F00150000A51
:10136800D8B44AEF09F0010AD8B458EF09F0030AD3
:10137800D8B45BEF09F0C1EF09F042AEC6EF09F04F
:10138800C8EF09F0CFEF09F0380E3F6E020E406E3D
:101398004280020E436E120002013039E832030B1C
:1013A8000009D8B4DAEF09F0DCEF09F020EF0AF011
:1013B80059EF0AF0428E080E5B6E59EF0AF012ECF4
:1013C80006F059EF0AF05FEC0DF059EF0AF05D0EE8
:1013D8003F6E000E406E4280010E436E428E59EF02
:1013E8000AF043EC09F059EF0AF009EC00F059EF64
:1013F8000AF0AA0E34253F6E406A000E4022EFEF35
:1014080009F0428EAA0E3425D96EDA6A000EDA2265
:1014180032C2DFFF59EF0AF0000E106E020E0F6E97
:10142800000E116E000E126E000E146E000E136E7A
:1014380086EC0EF059EF0AF031511E6E1F6A1F50EC
:10144800000AD8B42AEF0AF059EF0AF01E50000A31
:10145800D8B4F5EF09F0010AD8B4F9EF09F0020A97
:10146800D8B4F9EF09F0060AD8B4DEEF09F0030A98
:10147800D8B4E3EF09F0010AD8B410EF0AF00F0A64
:10148800D8B4EBEF09F0010AD8B4E7EF09F0030A82
:10149800D8B4FDEF09F0010AD8B405EF0AF0070A3D
:1014A800D8B459EF0AF059EF0AF01200080E016E8D
:1014B800445007E1080E435CD8B065EF0AF067EFC7
:1014C8000AF07FEF0AF043C001F05950D8A46FEF3B
:1014D8000AF071EF0AF075EF0AF0010E596E7FEF0E
:1014E8000AF05904D8A47BEF0AF07DEF0AF07FEFE9
:1014F8000AF0020E596E0150435E000E445A20EE67
:1015080001F04550D9264650DA2201C0DFFF380ED7
:1015180000018E6F020E8F6F42B095EF0AF097EFC1
:101528000AF0D9EF0AF0B4EF0AF03FC0F6FF40C066
:10153800F7FFF86A8EC0D9FF8FC0DAFF020EF76492
:1015480003D00800F55005D0F6CFE1FFF7CFE2FF52
:10155800E750DF6E3F4A402A00018E4B8F2B010671
:101568000150D8A4BAEF0AF0BCEF0AF099EF0AF0DC
:10157800E1EF0AF03FC0F6FF40C0F7FFF86A8EC0FF
:10158800D9FF8FC0DAFF020EF76403D00800F550C8
:1015980005D0F6CFE1FFF7CFE2FFE750DF6E3F4A15
:1015A800402A00018E4B8F2B01060150D8A4DFEF93
:1015B8000AF0E1EF0AF0BEEF0AF012005FEC07F064
:1015C800EEEF0AF0B6EC01F0000E026E010E016EAD
:1015D80019EC13F01F0E5B64F4EF0AF0F6EF0AF053
:1015E800E6EF0AF064B2FBEF0AF0FDEF0AF0E6EF6F
:1015F8000AF0B6EC01F0800E0C6E010E0D6E400E76
:101608000E6E2CEC0EF08C0E166E3F0E176E000E42
:10161800196E000E186E010E1A6E100E1B6E8DECF0
:101628000FF01FEF0BF0B6EC01F0000E026E010E8A
:10163800016E19EC13F01F0E5B6425EF0BF027EF1A
:101648000BF017EF0BF064B22CEF0BF02EEF0BF052
:1016580017EF0BF0B6EC01F0B60E166E3F0E176ED4
:10166800000E196E000E186E010E1A6E100E1B6E0B
:101678008DEC0FF048EF0BF0B6EC01F0000E026EA7
:10168800010E016E19EC13F01F0E5B644EEF0BF0A8
:1016980050EF0BF040EF0BF064B255EF0BF057EF43
:1016A8000BF040EF0BF0B6EC01F0A10E166E3F0EFA
:1016B800176E000E196E000E186E010E1A6E100EBF
:1016C8001B6E8DEC0FF0120045C0D9FF46C0DAFF43
:1016D800000EDFBC010E026E040E4518456E465022
:1016E800466E080E5B18D8A47CEF0BF07EEF0BF06B
:1016F80091EF0BF0020132517F0B0F015C6F5C51CF
:10170800D8B489EF0BF08BEF0BF08FEF0BF0100EC6
:101718005B6E91EF0BF0040E5B6E5804D8A497EF44
:101728000BF099EF0BF0E0EF0BF020EE02F04550D4
:10173800D9264650DA22380EDE6E020EDD6E5AECDD
:101748000AF0020E5918D8A4ACEF0BF0AEEF0BF06C
:10175800BCEF0BF045C0D9FF46C0DAFF040EDF6EC0
:1017680045C0D9FF46C0DAFF000EDB8EEBEF0BF069
:101778000250D8A4C2EF0BF0C4EF0BF0D2EF0BF07D
:1017880045C0D9FF46C0DAFF480EDF6E45C0D9FF15
:1017980046C0DAFF000EDB8EEBEF0BF045C0D9FF39
:1017A80046C0DAFF080EDF6E45C0D9FF46C0DAFF33
:1017B800000EDB8EEBEF0BF000016DAFE6EF0BF0E8
:1017C800E8EF0BF0E9EF0BF06D9F000E586E12007A
:1017D800020130511F0BE806D8B4F5EF0BF0F7EF14
:1017E8000BF0F9EF0BF06CEF0CF03039E832030B2B
:1017F800E806D8B402EF0CF004EF0CF006EF0CF09A
:101808006CEF0CF03451D8B40CEF0CF00EEF0CF078
:101818004BEF0CF03405D8B414EF0CF016EF0CF0C5
:101828004BEF0CF06CEF0CF09B0E3F6E000E406E11
:10183800000E446E080E436E4280428E6CEF0CF030
:101848009B0E3F6E000E406E21EF0CF036C26EF01C
:1018580037C26FF0A30E00016A6F000E6B6F000EA7
:10186800706F000E716F6D8F6CEF0CF0A30E3F6EF2
:10187800000E406E000E446E070E436EC10E426E9F
:101888006CEF0CF032C291F0428E6CEF0CF03151DB
:10189800016E026A0250000AD8B455EF0CF06CEFE2
:1018A8000CF00150000AD8B418EF0CF0010AD8B4B3
:1018B80024EF0CF0210AD8B42AEF0CF0010AD8B4AE
:1018C8003AEF0CF0030AD8B446EF0CF06CEF0CF0CA
:1018D800120064A272EF0CF074EF0CF0D3EF0CF06E
:1018E800010E03EC12F0E6EF0CF04B044C10D8A4F8
:1018F80080EF0CF082EF0CF087EF0CF0010ED2ECC9
:1019080011F0E4EF0CF04B0E4B184C10D8A48FEFED
:101918000CF091EF0CF096EF0CF0010E03EC12F0C6
:10192800E4EF0CF04C5009E1970E4B5CD8A09FEF08
:101938000CF0A1EF0CF0A7EF0CF0000E4C6E000EAF
:101948004B6EE4EF0CF0E4EF0CF04B044C10D8A411
:10195800B0EF0CF0B2EF0CF0B7EF0CF0010ED2ECD8
:1019680011F0E4EF0CF0320E4B184C10D8A4BFEF76
:101978000CF0C1EF0CF0C6EF0CF0010E03EC12F006
:10198800E4EF0CF0B70E4B5C030E4C58D8A0CFEF29
:101998000CF0D1EF0CF0E4EF0CF0A1EF0CF05B5081
:1019A800046E056A0550000AD8B4DDEF0CF0A9EF03
:1019B8000CF00450200AD8B479EF0CF0A9EF0CF021
:1019C8004B4A4C2A120000019751D8A4EEEF0CF0B4
:1019D800F0EF0CF05EEF0DF0010E976F9651D8A462
:1019E800F8EF0CF0FAEF0CF05EEF0DF0010E966FC9
:1019F800020E5818D8A403EF0DF005EF0DF01AEFFA
:101A08000DF020EE01F04550D9264650DA22DF6A63
:101A180045C0D9FF46C0DAFF480EDF6E45C0D9FF82
:101A280046C0DAFF000EDB8E5EEF0DF05804D8A436
:101A380020EF0DF022EF0DF05EEF0DF0000E986F25
:101A480020EE01F05150D9265250DA22080EDF6EEE
:101A580020EE02F05150D9265250DA22300EDE6EB6
:101A6800020EDD6E51C0D9FF52C0DAFF040EDF6EE0
:101A780051C0D9FF52C0DAFF000EDB8E010E986FFD
:101A880020EE01F04F50D9265050DA22080EDF6EB2
:101A980020EE02F04F50D9265050DA22300EDE6E7A
:101AA800020EDD6E4FC0D9FF50C0DAFF800EDF6E28
:101AB8005EEF0DF01200428E540E016E0F0E026E94
:101AC800000E046E000E036E000E066E020E056E0A
:101AD800AEEC04F0000E016E020E026E000E046EF3
:101AE800000E036E000E066E300E056EAEEC04F0AE
:101AF800648C000E176E890E1724D96EDA6A000EF0
:101B0800DA22DF6A860E1724D96EDA6A000EDA2224
:101B1800DF6A172A020E176494EF0DF096EF0DF0A6
:101B28007FEF0DF0AA0E016E000E026E000E046E1D
:101B3800000E036E000E066E020E056EAEEC04F08B
:101B4800649C080E456E020E466E000E516E020E23
:101B5800526E51C04FF052C050F032C25DF05D502D
:101B6800D8A4B9EF0DF0BBEF0DF0BFEF0DF0100EDC
:101B78005B6ECFEF0DF0000E106E010E0F6E5D0E56
:101B8800116E000E126E000E146E010E136E86ECAE
:101B98000EF0200E5B6E12002D0E566E5CC020F00B
:101BA800FD0E2016D8A4DBEF0DF0DDEF0DF01FEFD2
:101BB8000EF05CC020F0D89020323F0E2016205046
:101BC800040D000EF324516E020EF420526E51C023
:101BD8004FF052C050F0040E4F184F6E5050506ED8
:101BE80051C0D9FF52C0DAFFDF30E8320F0B0D0ABF
:101BF800D8A401EF0EF003EF0EF01BEF0EF0300E3D
:101C0800016E020E026E20EE02F05150D92652509B
:101C1800DA22DECF03F0DDCF04F0000E066E080EE8
:101C2800056E61EC12F0E2EC0FF02BEF0EF02AECEF
:101C380010F02BEF0EF05C50FD0B040AD8A427EF30
:101C48000EF029EF0EF02BEF0EF068EC0BF01200FF
:101C5800000E546E4D504E10D8B435EF0EF037EFDD
:101C68000EF042EF0EF04DC0D9FF4EC0DAFFDFBED6
:101C780040EF0EF042EF0EF084EF0EF020EE01F090
:101C88004D50D9264E50DA220E50DE5CD8B04FEFB8
:101C98000EF051EF0EF059EF0EF020EE01F04D501E
:101CA800D9264E50DA22DF500E6E000E546E6CEFBD
:101CB8000EF0800E5424D96EDA6A020EDA225450DD
:101CC8000C24E16E000E0D20E26EDFCFE7FF542AF0
:101CD8000E50545CD8A073EF0EF075EF0EF05DEF68
:101CE8000EF0000E016E800E026E020E036E400EA4
:101CF800046E020EA4EC08F001C04DF002C04EF0D4
:101D080054501200A4EF0EF06DEC0CF0DDEF0EF065
:101D18006DEC0CF0010EAFEC12F0DDEF0EF06DEC97
:101D28000CF0020EAFEC12F0DDEF0EF03EEC11F00D
:101D3800B6EC13F0DDEF0EF0ECEC0BF0DDEF0EF08F
:101D48000FC015F010C016F01650000AD8B4B3EF43
:101D58000EF07F0AD8B4D6EF0EF0DDEF0EF0155076
:101D6800010AD8B49AEF0EF0030AD8B4DDEF0EF0EA
:101D7800010AD8B4A0EF0EF0060AD8B4DDEF0EF0D1
:101D8800770AD8B4DDEF0EF0010AD8B488EF0EF068
:101D9800070AD8B493EF0EF0010AD8B48CEF0EF00E
:101DA800DDEF0EF01550FF0AD8B4DDEF0EF0DDEFD1
:101DB8000EF01200086E000E096E020E0A6E015037
:101DC800026E036AD890023603360850046E056A1C
:101DD800D89004360536D8900436053602500424C7
:101DE800066E03500520076ED89006360736D89041
:101DF800063607360650092607500A2209C0D9FFB9
:101E08000AC0DAFFDF9E0150D8A40DEF0FF00FEFE4
:101E18000FF01DEF0FF00850020D720EF324D96E6B
:101E2800000EF420DA6E09C0DEFF0AC0DDFF29EFDC
:101E38000FF00850020D450EF324D96E000EF42061
:101E4800DA6E09C0DEFF0AC0DDFF09C0D9FF0AC08B
:101E5800DAFFDF9C20EE04F00950D9260A50DA2276
:101E6800DF8C1200000E0001956F000E946F020EB9
:101E78005818D8A442EF0FF044EF0FF064EF0FF0BA
:101E880020EE01F04F50D9265050DA22080EDF6EAE
:101E980020EE02F04F50D9265050DA22380EDE6E6E
:101EA800020EDD6E4FC0D9FF50C0DAFF480EDF6E5C
:101EB8004FC0D9FF50C0DAFF000EDB8E8CEF0FF059
:101EC80043500201365D44503759D8B06EEF0FF0D9
:101ED80070EF0FF074EF0FF036C243F037C244F0E2
:101EE8005AEC0AF020EE02F04550D9264650DA2284
:101EF800380EDE6E020EDD6E45C0D9FF46C0DAFF31
:101F0800480EDF6E45C0D9FF46C0DAFF000EDB8EF3
:101F18001200000E3A6EA1EF0FF016C0F6FF17C0C0
:101F2800F7FF1C0E3A24D96EDA6A000EDA2208008E
:101F3800F5CFDFFF164A172A3A2A16C0F6FF17C050
:101F4800F7FF0800F5500009D8A4ADEF0FF0AFEF88
:101F58000FF091EF0FF01C0E3A24086E096A000E7C
:101F6800092218C00AF019C00BF01BC00CF0EBECEA
:101F780002F01C0E016E000E026E1AC003F00AEC8D
:101F880011F0E6EC03F05A50D8A4CDEF0FF0CFEFE4
:101F98000FF0E1EF0FF0E70E036E3F0E046E000E38
:101FA800066E010E056EA4EC13F01C0E016E000EF9
:101FB800026ED5EC10F0E6EC03F01200000E596E3C
:101FC800000E556E000E0001956F000E946F000E06
:101FD800986F000E586E45C0D9FF46C0DAFF7F0ED5
:101FE800DF16040E4518456E4650466E45C0D9FFAB
:101FF80046C0DAFF7F0EDF16040E4518456E4650C0
:10200800466E4FC0D9FF50C0DAFF7F0EDF16000EB4
:10201800426E000E446E000E436E000E6D6F000E91
:102028006F6F000E6E6FD0EC09F0000E106E030E8D
:102038000F6E000E116E000E126E000E146E000E62
:10204800136E86EC0EF0BAEC06F01200020E581869
:10205800D8A431EF10F033EF10F037EF10F002ECA6
:1020680008F064EF10F0000E586E00019851D8A4E3
:1020780040EF10F042EF10F062EF10F020EE01F0A8
:102088004F50D9265050DA22080EDF6E20EE02F0AB
:102098004F50D9265050DA22300EDE6E020EDD6E19
:1020A8004FC0D9FF50C0DAFF0C0EDF6E4FC0D9FF0A
:1020B80050C0DAFF000EDB8E64EF10F0000E986F50
:1020C8001200000E066E000E056E03500410D8B400
:1020D80070EF10F072EF10F09AEF10F0010E076E2B
:1020E8007AEF10F0D89003360436072A04AE7FEF53
:1020F80010F081EF10F076EF10F0D8900536063624
:102108000350015C04500258D8A08DEF10F08FEFF7
:1021180010F094EF10F00350015E0450025A05804D
:10212800D89004320332072E81EF10F005C001F079
:1021380006C002F01200BCEF10F09EA8A6EF10F047
:10214800A8EF10F0A1EF10F001C0F6FF02C0F7FFF2
:10215800F86A020EF76403D00800F55005D0F6CFF0
:10216800E1FFF7CFE2FFE750AD6EAD50014A022A1A
:1021780001C0F6FF02C0F7FFF86A020EF76403D049
:102188000800F55005D0F6CFE1FFF7CFE2FFE750A2
:102198000009D8A4D2EF10F0D4EF10F0A1EF10F09E
:1021A80012005A50D8B4DBEF10F0DDEF10F0DFEF7B
:1021B80010F009EF11F0000E056E01C003F002C027
:1021C80004F0052A0528D8A4ECEF10F0EEEF10F083
:1021D800F0EF10F0FEEF10F003C0D9FF04C0DAFFF3
:1021E800034A042ADF50D8A4FCEF10F0FEEF10F0E9
:1021F800E5EF10F001C083F002C084F005C053F091
:10220800010E0001926F010E5A6E1200000E046E4C
:1022180011EF11F0014A022A042A01C0D9FF02C0B5
:10222800DAFFDF50D8A41BEF11F01DEF11F00EEF0D
:1022380011F00304D8A423EF11F025EF11F03CEFBF
:1022480011F001C0D9FF02C0DAFF0D0EDF6E014A9E
:10225800022A042A01C0D9FF02C0DAFF0A0EDF6E83
:10226800014A022A042A01C0D9FF02C0DAFFDF6A44
:1022780004501200000E0001A36F4B0EA46F000E55
:10228800A56F000EA66F000EA76F000EA86F080EB0
:10229800A96F000E546E1A0E0B6E010E89EC12F027
:1022A8001E0E0B6E020E89EC12F0000E016E800EEF
:1022B800026E020E036E400E046E020EA4EC08F0CD
:1022C80001C04DF002C04EF0000E00018C6F000EF0
:1022D8008D6F000E5A6E12000F0153A176EF11F0A8
:1022E80078EF11F09FEF11F051C0D9FF52C0DAFF1B
:1022F800800EDE18D8A483EF11F085EF11F09EEF61
:1023080011F045C0D9FF46C0DAFF840EDE18D8A404
:1023180090EF11F092EF11F09EEF11F051C0D9FF3C
:1023280052C0DAFF0C0EDF6E51C0D9FF52C0DAFF7F
:10233800000EDB8E5391629A1200036EB0EF11F01B
:102348009490D1EF11F09492D1EF11F09494D1EFD1
:1023580011F09496D1EF11F00350016E026A025009
:10236800000AD8B4BAEF11F0D1EF11F00150000A09
:10237800D8B4D1EF11F0010AD8B4A4EF11F0030AD0
:10238800D8B4A7EF11F0010AD8B4AAEF11F0070AE0
:10239800D8B4ADEF11F0D1EF11F01200036EE1EFF8
:1023A80011F08B8002EF12F08B8202EF12F08B8417
:1023B80002EF12F08B8602EF12F00350016E026AF0
:1023C8000250000AD8B4EBEF11F002EF12F00150FE
:1023D800000AD8B402EF12F0010AD8B4D5EF11F010
:1023E800030AD8B4D8EF11F0010AD8B4DBEF11F022
:1023F800070AD8B4DEEF11F002EF12F01200036EF4
:1024080012EF12F08B9033EF12F08B9233EF12F041
:102418008B9433EF12F08B9633EF12F00350016E6A
:10242800026A0250000AD8B41CEF12F033EF12F01F
:102438000150000AD8B433EF12F0010AD8B406EFFD
:1024480012F0030AD8B409EF12F0010AD8B40CEF5D
:1024580012F0070AD8B40FEF12F033EF12F012009F
:10246800900EF66E270EF76E000EF86E00EEACF0CA
:1024780010EE22F00900F5CFEEFFE550E150FAE149
:1024880001EE00F011EE00F0EE6AE550E150FCE1DB
:10249800E250FAE100EE60F04C0EEE6AE806FDE16B
:1024A80000EE3FF01F0EEE6AE806FDE15E905E92D8
:1024B800000EF86E000169EF05F003C009F004C0D2
:1024C8000AF001C007F002C008F07BEF12F009C063
:1024D800D9FF0AC0DAFFDF500B6E094A0A2A07C083
:1024E800D9FF08C0DAFF0BC0DFFF074A082A050634
:1024F800D8A00606052806E10628D8A486EF12F01B
:1025080088EF12F06BEF12F012000E6E0BA48FEF33
:1025180012F091EF12F096EF12F0000E016E0E50CD
:10252800DEEC0EF00BA29BEF12F09DEF12F0A2EF83
:1025380012F0010E016E0E50DEEC0EF0530E0E245A
:102548000C6E0D6A0F0E0D220CC0D9FF0DC0DAFFFC
:102558000BC0DFFF1200066EBAEF12F0010EA1ECFD
:1025680011F0010E65EC13F0D3EF12F00650046E73
:10257800056A0550000AD8B4C4EF12F0D3EF12F080
:102588000450000AD8B4B2EF12F0010AD8B4D3EF5D
:1025980012F0030AD8B4D3EF12F0D3EF12F01200FE
:1025A80016C001F017C002F09FEC10F01E0E086E66
:1025B800000E096E18C00AF019C00BF01CC00CF010
:1025C800EBEC02F01E0E016E000E026E9FEC10F096
:1025D8001A041B10D8A4F3EF12F0F5EF12F0F7EF7E
:1025E80012F07CEC13F01200000E0001996F000E3F
:1025F800106E740E0F6E000E116E000E126E000E2D
:10260800146E000E136E86EC0EF0649260940EEF5A
:1026180013F0629462B413EF13F015EF13F00DEF9B
:1026280013F0000E0001936F1200000E056E000EED
:10263800046E28EF13F00D0E036EFC0EE82EFED785
:10264800032EFCD7044A052A0150045C02500558A1
:10265800D8A031EF13F033EF13F01FEF13F012008F
:10266800010E00017C27000E7D237E237F239951D4
:10267800D8A441EF13F043EF13F04DEF13F0932B71
:102688009351D8A44AEF13F04CEF13F04DEF13F029
:1026980093691200608462986482010E0001996F48
:1026A800000E936F000E106E750E0F6E000E116EF9
:1026B800000E126E000E146E000E136E86EC0EF0F5
:1026C8001200036E0350016E026A0250000AD8B469
:1026D80070EF13F07BEF13F00150000AD8B47BEFD2
:1026E80013F0010AD8B47BEF13F07BEF13F012005C
:1026F8009EA881EF13F083EF13F07CEF13F00D0E1B
:10270800AD6EAD509EA88BEF13F08DEF13F086EFF2
:1027180013F00A0EAD6EAD50120001500302F3CF54
:1027280005F0F4CF06F001500402F35006260250DB
:102738000302F350062605C001F006C002F012009D
:1027480003C001F004C002F09FEC10F0050406106D
:10275800D8A4B1EF13F0B3EF13F0B5EF13F07CEC9E
:1027680013F01200000E0001A76F080EA96F000EEB
:10277800A86F800EA36F250EA46F000EA56F000E24
:10278800A66F000E906F1200303132333435363771
:102798003839616263646566427574746F6E20705F
:1027A8007265737365642E0D0A009EAADEEF13F03E
:1027B800E0EF13F0E4EF13F0AECF01F0E6EF13F023
:0827C800000E016E0150120029
:103EC20000883F423F0E3FCB3E0902430002010001
:103ED200C0320904000001020201000524001001A1
:103EE200042402020524060001052401000107053D
:103EF20081030A000209040100020A00000007050A
:103F02000202400000070582024000003403430021
:103F1200440043002000520053002D0032003300C1
:103F22003200200045006D0075006C0061007400D5
:103F320069006F006E002000440065006D006F0094
:103F420034034D006900630072006F006300680073
:103F520069007000200054006500630068006E0074
:103F62006F006C006F0067007900200049006E004E
:103F720063002E001201000202000008D8040A00A9
:103F8200000101020001040309042A2A2A2A2A2A1A
:103F92002A2A2A312A2A2A2A2A2A2A2A2A2A002AA2
:103FA2002A2A2A2A2A2A2A2A322A2A2A2A2A2A2A67
:103FB2002A2A2A002A2A2A2055415254205354419F
:103FC2005254202A2A2A2A00554152542D527864EA
:103FD200617461203D20004765744368614E756DD0
:103FE20072203D20007075747355534255534152EF
:0E3FF200540047657443686172203D20000052
:020000040020DA
:08000000FFFFFFFFFFFFFFFF00
:020000040030CA
:0E0000000032011EFF0081FF03C003E0034039
:00000001FF
