:0400000007EF00F016
:100008005E825E921100E8EF11F002013205D8A479
:1000180010EF00F012EF00F02EEF00F030511F0B40
:100028000009D8A41AEF00F01CEF00F02EEF00F042
:10003800438E030E3119D8A424EF00F026EF00F008
:100048002BEF00F0010E0001986F2EEF00F0000E6C
:100058000001986F02013251D8A435EF00F037EF54
:1000680000F0B5EF01F030511F0B020AD8A43FEFA2
:1000780000F041EF00F0B5EF01F034510F0B00092B
:10008800D8B449EF00F04BEF00F0B5EF01F0345170
:100098000F0B176E030E176054EF00F056EF00F0C9
:1000A800B5EF01F0200E5B18D8A45DEF00F05FEF0C
:1000B80000F0B5EF01F0438E34BF65EF00F067EF55
:1000C80000F084EF00F034510F0B176E1750020D3B
:1000D800720EF324D96E000EF420DA6EDECF1CF017
:1000E800DDCF1DF034510F0B176E186A860E1724DA
:1000F800D96E000E1820DA6EDF501B6E9FEF00F0ED
:1001080034510F0B176E1750020D460EF324D96E9B
:10011800000EF420DA6EDECF1CF0DDCF1DF0345176
:100128000F0B176E186A890E1724D96E000E182047
:10013800DA6EDF501B6E1BB0A4EF00F0A6EF00F0E4
:10014800AEEF00F0FB0E1C141C6EFF0E1D141D6E8E
:10015800B3EF00F0040E1C101C6E1D501D6E34BF52
:10016800B8EF00F0BAEF00F0CBEF00F034510F0B0E
:10017800176E1750020D720EF324D96E000EF4207C
:10018800DA6E1CC0DEFF1DC0DDFFDAEF00F034516F
:100198000F0B176E1750020D460EF324D96E000E82
:1001A800F420DA6E1CC0DEFF1DC0DDFF030E31191E
:1001B800D8A4E1EF00F0E3EF00F01DEF01F01CC060
:1001C800D9FF1DC0DAFFDFAEECEF00F0EEEF00F074
:1001D8000FEF01F034BFF3EF00F0F5EF00F003EF9D
:1001E80001F034510F0B176E186A860E1724D96E5A
:1001F800000E1820DA6E0001DF820FEF01F0345193
:100208000F0B176E186A890E1724D96E000E182066
:10021800DA6E0001DF821CC0D9FF1DC0DAFF000EB4
:10022800DB841CC0D9FF1DC0DAFF000EDB8EB5EFE2
:1002380001F0040E1C181C6E1D501D6E1CC0D9FF49
:100248001DC0DAFFDFAE2BEF01F02DEF01F049EF13
:1002580001F01CC0D9FF1DC0DAFF7F0EDF161CC0DD
:10026800D9FF1DC0DAFF000EDB8C000E106E050EE4
:100278000F6E1CC011F01DC012F0000E146E020E9D
:10028800136EDBEC0FF04FEF01F01CC0D9FF1DC05F
:10029800DAFF000EDB8C040E1C181C6E1D501D6E40
:1002A8001BB259EF01F05BEF01F066EF01F01CC0E3
:1002B800D9FF1DC0DAFFDFAE64EF01F066EF01F091
:1002C8009EEF01F0020134BF6CEF01F06EEF01F018
:1002D8007CEF01F034510F0B176E186A860E172445
:1002E800D96E000E1820DA6E0001DF9288EF01F057
:1002F80034510F0B176E186A890E1724D96E000E29
:100308001820DA6E0001DF921CC0D9FF1DC0DAFF89
:100318003B0EDF16000E106E050E0F6E1CC011F09E
:100328001DC012F0000E146E020E136EDBEC0FF0FF
:10033800A4EF01F01CC0D9FF1DC0DAFF3B0EDF1689
:10034800020134510F0B176E186A530E1724196ED9
:100358000F0E18201A6E19C0D9FF1AC0DAFFFE0E48
:10036800DF161200000ED36E000E7E6E000E7F6E3A
:10037800000E946E000E806E000E816E000E826E6E
:10038800000E926E500E936E240EAC6E900EAB6EF5
:10039800000EB86E9B0EAF6E080EC66E000EC56ED0
:1003A800800EC76E770EC86E280EC66EAFEC0BF0C7
:1003B800EB0E166E3F0E176E000E196E000E186EBD
:1003C800010E1A6E100E1B6E88EC0FF0E70E166EFB
:1003D8003F0E176E000E196E000E186E010E1A6E83
:1003E800100E1B6E5FEC12F0010E3C6E95EF02F0E2
:1003F8002CEC03F0990E0C6E000E0D6E400E0E6E76
:100408007FEC0EF03F6E3F50D8B40DEF02F00FEFC7
:1004180002F072EF02F0CC0E166E3F0E176E3FC060
:1004280018F0196A010E1A6E100E1B6E88EC0FF088
:10043800CC0E166E3F0E176E3FC018F0196A010EEB
:100448001A6E100E1B6E5FEC12F0000E3E6E69EF16
:1004580002F0F40E166E3F0E176E990E3E24D96EFA
:10046800DA6A000EDA22DF503B6E3B50186E196ACA
:10047800010E1A6E100E1B6E88EC0FF0BD0E166E74
:100488003F0E176E990E3E24D96EDA6A000EDA22F4
:10049800DF503B6E3B50186E196A010E1A6E100E33
:1004A8001B6E5FEC12F0990E3E24D96EDA6A000ECC
:1004B800DA22690EDE18D8A464EF02F066EF02F0C3
:1004C80068EF02F0000E3C6E3E2A3F503E5CD8A01A
:1004D80070EF02F072EF02F02DEF02F043EC13F030
:1004E8003D6E3D50D8B47BEF02F07DEF02F095EF02
:1004F80002F0BD0E166E3F0E176E3DC018F0196A59
:10050800010E1A6E100E1B6E5FEC12F0690E3D188C
:10051800D8A491EF02F093EF02F095EF02F0000EED
:100528003C6E3C04D8B49BEF02F09DEF02F0FCEF68
:1005380001F03C50D8A4A3EF02F0A5EF02F0ADEF14
:1005480002F0940E036E3F0E046E010E056E32EC3F
:1005580013F0990E0C6E000E0D6E400E0E6E7FECB1
:100568000EF03F6E3F50D8B4BCEF02F0BEEF02F081
:1005780010EF03F0CC0E166E3F0E176E3FC018F04A
:10058800196A010E1A6E100E1B6E88EC0FF0CC0E55
:10059800166E3F0E176E3FC018F0196A010E1A6EDC
:1005A800100E1B6E5FEC12F0000E3E6E07EF03F0AC
:1005B800F40E166E3F0E176E990E3E24D96EDA6A47
:1005C800000EDA22DF503B6E3B50186E196A010E9E
:1005D8001A6E100E1B6E88EC0FF0BD0E166E3F0ED5
:1005E800176E990E3E24D96EDA6A000EDA22DF50B1
:1005F8003B6E3B50186E196A010E1A6E100E1B6E78
:100608005FEC12F03E2A3F503E5CD8A00EEF03F09C
:1006180010EF03F0DCEF02F043EC13F03D6E3D50B9
:10062800D8B419EF03F01BEF03F0ADEF02F0BD0EE5
:10063800166E3F0E176E3DC018F0196A010E1A6E3D
:10064800100E1B6E5FEC12F0ADEF02F007EF00F03A
:100658005B50D8A432EF03F034EF03F04BEF03F014
:10066800000E646E000E606E160E616E9F0E0F0116
:100678005B6F7B0E606E42EF03F0648664A647EF03
:1006880003F049EF03F041EF03F0010E5B6E5B04EA
:10069800D8A451EF03F053EF03F062EF03F064BA0C
:1006A80058EF03F05AEF03F062EF03F0000E626EAA
:1006B800000E606E60806088020E5B6E62A467EF59
:1006C80003F069EF03F073EF03F060A46EEF03F03B
:1006D80070EF03F073EF03F0629482EC12F064A2FF
:1006E80078EF03F07AEF03F07DEF03F0A19460EF69
:1006F80004F062A082EF03F084EF03F090EF03F0C0
:1007080060A089EF03F08BEF03F090EF03F02CEC7F
:1007180008F0040E5B6E629062A895EF03F097EF05
:1007280003F0A0EF03F060A89CEF03F09EEF03F046
:10073800A0EF03F0F3EC12F062ACA5EF03F0A7EF23
:1007480003F0D2EF03F060ACACEF03F0AEEF03F0D0
:10075800BCEF03F0000E106E730E0F6E000E116EDC
:10076800000E126E000E146E010E136EDBEC0FF00D
:10077800629CD9EC12F05650D8B4C5EF03F0C7EF1D
:1007880003F0C8EF03F056065650D8A4CEEF03F096
:10079800D0EF03F0D2EF03F03AEC0DF062AAD7EFF6
:1007A80003F0D9EF03F0E2EF03F060AADEEF03F005
:1007B800E0EF03F0E2EF03F0B7EC11F062A2E7EF2D
:1007C80003F0E9EF03F000EF04F060A2EEEF03F0AE
:1007D800F0EF03F000EF04F07F0E106E0F68000ECC
:1007E800116E000E126E000E146E010E136EDBEC0D
:1007F8000FF0000E0F015F6F040E5B6006EF04F050
:1008080008EF04F00BEF04F0A19460EF04F060A689
:1008180010EF04F012EF04F05FEF04F0000E216E09
:1008280062A619EF04F01BEF04F05FEF04F063CF4A
:100838005CF05C30E832E8320F0B576E62965CB4BD
:1008480028EF04F02AEF04F034EF04F0860E572462
:10085800D96EDA6A000EDA220001DF703CEF04F08C
:10086800890E5724D96EDA6A000EDA220001DF7089
:100878005750D8A442EF04F044EF04F048EF04F0D6
:1008880023EC0EF056EF04F0000E106E720E0F6E91
:100898005C0E116E000E126E000E146E000E136EBA
:1008A800DBEC0FF0212A030E21645DEF04F05FEF0B
:1008B80004F014EF04F0A1941200000E116E000E63
:1008C800106E0AC014F00BC015F00A0E0C18D8A44C
:1008D80070EF04F072EF04F0DFEF04F0270E136EF0
:1008E800100E126E14C001F015C002F012C003F011
:1008F80013C004F0ACEC10F001C014F002C015F005
:1009080010501110D8A48BEF04F08DEF04F0A8EF6D
:1009180004F014501510D8B494EF04F096EF04F0D6
:10092800B4EF04F0EA0E1424D96E000E1520DA6E26
:1009380008C0E1FF09C0E2FFDFCFE7FF000E116E3C
:10094800010E106EB4EF04F0EA0E1424D96E000EF6
:100958001520DA6E08C0E1FF09C0E2FFDFCFE7FF2C
:1009680014C001F015C002F012C003F013C004F067
:100978001FEC13F001500A5C146E02500B58156EF0
:10098800084A092A12C001F013C002F0000E046ED2
:100998000A0E036EACEC10F001C012F002C013F0A6
:1009A80012501310D8A4DBEF04F0DDEF04F076EF5B
:1009B80004F056EF05F008C0D9FF09C0DAFF300E81
:1009C800DF6E084A092A08C0D9FF09C0DAFF780E85
:1009D800DF6E084A092A0AC00DF00BC00EF00C0E93
:1009E8000F6ED8900E320D320F2EF5EF04F00F0E69
:1009F8000D14146E156AEA0E1424D96E000E152013
:100A0800DA6E08C0E1FF09C0E2FFDFCFE7FF084A5E
:100A1800092A0AC00DF00BC00EF00EC00DF00E6AC8
:100A28000F0E0D14146E156AEA0E1424D96E000EFA
:100A38001520DA6E08C0E1FF09C0E2FFDFCFE7FF4B
:100A4800084A092A0AC00DF00BC00EF0040E0F6EFA
:100A5800D8900E320D320F2E2CEF05F00F0E0D141C
:100A6800146E156AEA0E1424D96E000E1520DA6E7B
:100A780008C0E1FF09C0E2FFDFCFE7FF084A092A03
:100A88000F0E0A14146E156AEA0E1424D96E000E9D
:100A98001520DA6E08C0E1FF09C0E2FFDFCFE7FFEB
:100AA800084A092A08C0D9FF09C0DAFFDF6A12001C
:100AB80000018C518D11D8B464EF05F066EF05F094
:100AC80073EF05F08CC0D9FF8DC0DAFFDFAE6FEF92
:100AD80005F071EF05F073EF05F023EF06F0030E54
:100AE8005A18D8A47AEF05F07CEF05F07EEF05F0F0
:100AF800000E5A6E5A50D8A484EF05F086EF05F020
:100B080088EF05F023EF06F0020E5A18D8A48FEFED
:100B180005F091EF05F0A4EF05F0010E016E000E4F
:100B2800026E000E036E000E046E020E71EC09F0E8
:100B380001C08CF002C08DF0030E5A6E23EF06F050
:100B48005A04D8A4AAEF05F0ACEF05F023EF06F09D
:100B5800400E5264B2EF05F0B4EF05F0B8EF05F0BF
:100B6800400E0D6EBAEF05F052C00DF00D50525CFC
:100B7800526E400E806F020E816F0DC00CF09151C5
:100B8800D8A4C9EF05F0CBEF05F0F5EF05F0DCEFE1
:100B980005F083C0D9FF84C0DAFF80C0E1FF81C0BF
:100BA800E2FFDFCFE7FF804B812B834B842B0C06C2
:100BB8000C50D8A4E2EF05F0E4EF05F0CDEF05F016
:100BC800FDEF05F083C0D9FF84C0DAFF80C0E1FFE4
:100BD80081C0E2FFDFCFE7FF804B812B834B842B63
:100BE8000C060C50D8A4FBEF05F0FDEF05F0E6EF7E
:100BF80005F05250D8A403EF06F005EF06F014EF05
:100C080006F0400E0D18D8A40CEF06F00EEF06F013
:100C180012EF06F0020E5A6E14EF06F0030E5A6E2B
:100C2800010E016E400E026E020E036E0DC004F03E
:100C3800020E71EC09F001C08CF002C08DF01200B8
:100C480001C00BF002C00CF005500610D8A42FEF1D
:100C580006F031EF06F033EF06F0DEEF06F00BC0DA
:100C6800D9FF0CC0DAFF03C0DFFF05500B24076E65
:100C780006500C20086EFF0E0724D96EFF0E0820C0
:100C8800DA6E03C0DFFF065007E1030E055CD8B03B
:100C980050EF06F052EF06F054EF06F0DEEF06F0E4
:100CA80020EE01F00B50D9260C50DA2203C0DFFFEA
:100CB80020EE02F00B50D9260C50DA2203C0DFFFD9
:100CC80005500B24076E06500C20086EFE0E0724F4
:100CD800D96EFF0E0820DA6E03C0DFFF05500B2423
:100CE800076E06500C20086EFD0E0724D96EFF0E05
:100CF8000820DA6E03C0DFFF065007E1070E055C27
:100D0800D8B089EF06F08BEF06F08DEF06F0DEEF36
:100D180006F020EE03F00B50D9260C50DA2203C05F
:100D2800DFFF05500B24076E06500C20086EFC0EE2
:100D38000724D96EFF0E0820DA6E03C0DFFF0650C5
:100D480007E1090E055CD8B0ACEF06F0AEEF06F08F
:100D5800B0EF06F0DEEF06F00BC007F00CC008F0AD
:100D6800071E081E074A082A030E0714096E0A6A96
:100D780009500B260A500C220950055E0A50065AE3
:100D8800FC0E0516FF0E0616D5EF06F00BC0D9FFB0
:100D98000CC0DAFF03C0DFFF0506D8A006060B4A21
:100DA8000C2A05500610D8A4DCEF06F0DEEF06F09A
:100DB800CAEF06F01200800E02013019D8A4E7EF3E
:100DC80006F0E9EF06F086EF07F0C00E436E6DEF10
:100DD80007F0540E406E3F0E416E000E456E120E27
:100DE800446E86EF07F03251D8A4FDEF06F0FFEF0E
:100DF80006F03DEF07F03251020DA70EF324F66E10
:100E08003E0EF420F76E0900F5CF40F00A00F5CF4A
:100E180041F0020E4024016E000E4120026E01C016
:100E2800F6FF02C0F7FFF86A020EF76403D0080065
:100E3800F55005D0F6CFE9FFF7CFEAFFEF50446E43
:100E4800030E4024016E000E4120026E01C0F6FF21
:100E580002C0F7FFF86A020EF76403D00800F550E5
:100E680005D0F6CFE9FFF7CFEAFFEF50456E86EFE2
:100E780007F0000E436E86EF07F0030E326147EF6E
:100E880007F049EF07F03DEF07F03251020DA10ED0
:100E9800F324F66E3E0EF420F76E0900F5CF40F00D
:100EA8000A00F5CF41F040C0F6FF41C0F7FFF86AED
:100EB800020EF76403D00800F55005D0F6CFE9FF1D
:100EC800F7CFEAFFEF50016E0150446E456A86EF96
:100ED80007F03351016E026A0250000AD8B477EF66
:100EE80007F03DEF07F00150010AD8B4EDEF06F026
:100EF800030AD8B4F7EF06F0010AD8B441EF07F0B7
:100F08003DEF07F01200649843BE8DEF07F08FEFB6
:100F180007F0D6EF07F000016DAF95EF07F097EFF8
:100F280007F0AAEF07F0020E586E9351D8A49FEF6E
:100F380007F0A1EF07F0A3EF07F031EC0FF0000E78
:100F48000001956F000E546E2BEF08F020EE01F0B3
:100F58004E50D9264F50DA22080EDF6E20EE02F0EE
:100F68004E50D9264F50DA22300EDE6E020EDD6E5C
:100F78004EC0D9FF4FC0DAFF0C0EDF6E4EC0D9FF4E
:100F88004FC0DAFF000EDB8E46C0D9FF47C0DAFF3C
:100F9800040EDF6E46C0D9FF47C0DAFF000EDB8EB5
:100FA8002BEF08F0020130AFDCEF07F0DEEF07F0BF
:100FB800FCEF07F0010E586E00019451D8A4E7EF3A
:100FC80007F0E9EF07F0EBEF07F031EC0FF0000E58
:100FD8000001956F000E546E5550D8A4F6EF07F037
:100FE800F8EF07F02BEF08F03AEC0DF02BEF08F0D4
:100FF800020E586E20EE01F04E50D9264F50DA22DC
:10100800080EDF6E20EE02F04E50D9264F50DA223D
:10101800300EDE6E020EDD6E4EC0D9FF4FC0DAFF15
:10102800040EDF6E4EC0D9FF4FC0DAFF000EDB8E14
:10103800000E0001956F000E546E5550D8A427EF8E
:1010480008F029EF08F02BEF08F0F8EF07F012008E
:10105800A094000E0F015F6F000E626E000E536FBA
:10106800540E016E0F0E026E000E046E000E036E1B
:10107800000E066E020E056E24EC06F0160E616E6A
:101088009F0E0F015B6F7B0E606E000E0D6E0D5094
:10109800040D000EF324D96E020EF420DA6EDE6A17
:1010A800DE6ADE6ADD6A0D2A0B0E0D645EEF08F05B
:1010B80060EF08F04BEF08F0648C000E0F015C6FD6
:1010C8006498649C6296000E436E000E00016D6F7A
:1010D800000E6F6F000E6E6F62B675EF08F077EF57
:1010E80008F066EF08F0010E546E010E956F000EC1
:1010F800946F000E936F000E976F000E0D6E0D50DB
:10110800020D460EF324D96E000EF420DA6EDE6A64
:10111800DD6A0D50020D720EF324D96E000EF42014
:10112800DA6EDE6ADD6A890E0D24D96EDA6A000E7F
:10113800DA22DF6A860E0D24D96EDA6A000EDA2208
:10114800DF6A0D2A020E0D64ACEF08F0AEEF08F06E
:1011580083EF08F0080E466E020E476E160E0F015A
:10116800536F020E0201036F300E026F080E016FFB
:10117800040E006F008F000E5D6E000E00017C6F84
:10118800000E7D6F000E7E6F000E7F6F000E926F57
:10119800000E5B6E120020EE01F05050D92651501F
:1011A800DA22DF50026E025000016E5D000E6F59A8
:1011B800D8B0E1EF08F0E3EF08F0E5EF08F06EC013
:1011C80002F002506E5F000E6F5B000E016EFCEFC6
:1011D80008F0380E0124D96EDA6A020EDA226AC0E3
:1011E800E1FF6BC0E2FFDFCFE7FF6A4B6B2B012A01
:1011F8000250015CD8A003EF09F005EF09F0EDEF0C
:1012080008F06E516F11D8B40CEF09F00EEF09F029
:1012180047EF09F020EE01F04E50D9264F50DA2260
:10122800080EDF6E20EE02F04E50D9264F50DA221B
:10123800380EDE6E020EDD6E50C0D9FF51C0DAFFE7
:10124800DFBC29EF09F02BEF09F039EF09F04EC0A8
:10125800D9FF4FC0DAFF480EDF6E4EC0D9FF4FC02E
:10126800DAFF000EDB8E70EF09F04EC0D9FF4FC0D9
:10127800DAFF080EDF6E4EC0D9FF4FC0DAFF000E4E
:10128800DB8E70EF09F020EE01F04E50D9264F505A
:10129800DA22080EDF6E20EE02F04E50D9264F50AB
:1012A800DA22300EDE6E020EDD6E4EC0D9FF4FC060
:1012B800DAFF040EDF6E4EC0D9FF4FC0DAFF000E12
:1012C800DB8E6D9F5550D8A46CEF09F06EEF09F0D6
:1012D80070EF09F03AEC0DF01200096E0150D8B425
:1012E80078EF09F07AEF09F088EF09F00950020D5C
:1012F800460EF324D96E000EF420DA6EDECF0AF023
:10130800DDCF0BF094EF09F00950020D720EF324B3
:10131800D96E000EF420DA6EDECF0AF0DDCF0BF0C6
:101328000A500B10D8A49BEF09F09DEF09F0A3EF2A
:1013380009F0000E016E000E026E0FEF0AF020EEAB
:1013480002F00A50D9260B50DA2202C0DEFF03C091
:10135800DDFF20EE01F00A50D9260B50DA2204C036
:10136800DFFF0AC0D9FF0BC0DAFF400EDF160AC044
:10137800D9FF0BC0DAFF000EDB860AC0D9FF0BC00D
:10138800DAFF000EDB8E0150D8B4CDEF09F0CFEFB5
:1013980009F0EEEF09F00950020D460EF324D96E5C
:1013A800000EF420DA6EDECF05F0DDCF06F0040E75
:1013B8000518076E0650086E0950020D460EF324F4
:1013C800D96E000EF420DA6E07C0DEFF08C0DDFF1C
:1013D8000BEF0AF00950020D720EF324D96E000EBD
:1013E800F420DA6EDECF05F0DDCF06F0040E051826
:1013F800076E0650086E0950020D720EF324D96E5E
:10140800000EF420DA6E07C0DEFF08C0DDFF0AC058
:1014180001F00BC002F01200000E0201386F000E3E
:10142800396F74EF0AF0438E00019805D8A41FEFB6
:101438000AF021EF0AF08EEF0AF0020138838EEFEE
:101448000AF0438E8EEF0AF0438E34510F0B0009D9
:10145800D8B431EF0AF033EF0AF08EEF0AF034BF58
:1014680038EF0AF03AEF0AF04BEF0AF034510F0B5D
:10147800016E0150020D720EF324D96E000EF42095
:10148800DA6EDECF03F0DDCF04F05AEF0AF0345104
:101498000F0B016E0150020D460EF324D96E000E9B
:1014A800F420DA6EDECF03F0DDCF04F003C0D9FFFD
:1014B80004C0DAFFDFAE63EF0AF065EF0AF08EEFE3
:1014C8000AF003C0D9FF04C0DAFFDFA46EEF0AF008
:1014D80070EF0AF08EEF0AF0010E386F8EEF0AF007
:1014E80030511F0B016E026A0250000AD8B47FEF18
:1014F8000AF08EEF0AF00150000AD8B417EF0AF08C
:10150800010AD8B425EF0AF0030AD8B428EF0AF084
:101518008EEF0AF043AE93EF0AF095EF0AF09CEFD6
:101528000AF0380E406E020E416E4380020E446E81
:10153800120002013039E832030B0009D8B4A7EFD2
:101548000AF0A9EF0AF0EDEF0AF026EF0BF0438E50
:10155800080E5B6E26EF0BF0DFEC06F026EF0BF0C3
:10156800B2EC0DF026EF0BF05D0E406E000E416EF2
:101578004380010E446E438E26EF0BF010EC0AF008
:1015880026EF0BF009EC00F026EF0BF0E80E3425FF
:10159800406E416A000E4122BCEF0AF0438EE80E0D
:1015A8003425D96EDA6A000EDA2232C2DFFF26EF5E
:1015B8000BF0000E106E020E0F6E000E116E000E74
:1015C800126E000E146E000E136EDBEC0FF026EF99
:1015D8000BF031511E6E1F6A1F50000AD8B4F7EF86
:1015E8000AF026EF0BF01E50000AD8B4C2EF0AF03A
:1015F800010AD8B4C6EF0AF0020AD8B4C6EF0AF056
:10160800060AD8B4ABEF0AF0030AD8B4B0EF0AF070
:10161800010AD8B4DDEF0AF00F0AD8B4B8EF0AF01F
:10162800010AD8B4B4EF0AF0030AD8B4CAEF0AF032
:10163800010AD8B4D2EF0AF0070AD8B426EF0BF0A3
:1016480026EF0BF01200080E016E455007E1080E58
:10165800445CD8B032EF0BF034EF0BF04CEF0BF0EA
:1016680044C001F05950D8A43CEF0BF03EEF0BF00A
:1016780042EF0BF0010E596E4CEF0BF05904D8A451
:1016880048EF0BF04AEF0BF04CEF0BF0020E596EDF
:101698000150445E000E455A20EE01F04650D9260E
:1016A8004750DA2201C0DFFF380E00018E6F020EAC
:1016B8008F6F43B062EF0BF064EF0BF0A6EF0BF007
:1016C80081EF0BF040C0F6FF41C0F7FFF86A8EC00B
:1016D800D9FF8FC0DAFF020EF76403D00800F55077
:1016E80005D0F6CFE9FFF7CFEAFFEF50DF6E404AAB
:1016F800412A00018E4B8F2B01060150D8A487EF99
:101708000BF089EF0BF066EF0BF0AEEF0BF040C07B
:10171800F6FF41C0F7FFF86A8EC0D9FF8FC0DAFF25
:10172800020EF76403D00800F55005D0F6CFE9FFA4
:10173800F7CFEAFFEF50DF6E404A412A00018E4B97
:101748008F2B01060150D8A4ACEF0BF0AEEF0BF0D5
:101758008BEF0BF012002CEC08F0BBEF0BF02CEC2D
:1017680003F0000E026E010E016EA3EC12F01F0EC4
:101778005B64C1EF0BF0C3EF0BF0B3EF0BF064B297
:10178800C8EF0BF0CAEF0BF0B3EF0BF02CEC03F043
:10179800990E0C6E000E0D6E400E0E6E7FEC0EF064
:1017A8006A0E166E3F0E176E000E196E000E186E3A
:1017B800010E1A6E100E1B6E88EC0FF0ECEF0BF09A
:1017C8002CEC03F0000E026E010E016EA3EC12F079
:1017D8001F0E5B64F2EF0BF0F4EF0BF0E4EF0BF08D
:1017E80064B2F9EF0BF0FBEF0BF0E4EF0BF02CEC2D
:1017F80003F0A90E166E3F0E176E000E196E000E3E
:10180800186E010E1A6E100E1B6E88EC0FF015EF95
:101818000CF02CEC03F0000E026E010E016EA3EC2E
:1018280012F01F0E5B641BEF0CF01DEF0CF00DEFB8
:101838000CF064B222EF0CF024EF0CF00DEF0CF07A
:101848002CEC03F07F0E166E3F0E176E000E196E0D
:10185800000E186E010E1A6E100E1B6E88EC0FF03B
:10186800120046C0D9FF47C0DAFF000EDFBC010EE8
:10187800026E040E4618466E4750476E080E5B18F7
:10188800D8A449EF0CF04BEF0CF05EEF0CF002011E
:1018980032517F0B0F015C6F5C51D8B456EF0CF0DE
:1018A80058EF0CF05CEF0CF0100E5B6E5EEF0CF076
:1018B800040E5B6E5804D8A464EF0CF066EF0CF0CD
:1018C800ADEF0CF020EE02F04650D9264750DA2250
:1018D800380EDE6E020EDD6E27EC0BF0020E591884
:1018E800D8A479EF0CF07BEF0CF089EF0CF046C030
:1018F800D9FF47C0DAFF040EDF6E46C0D9FF47C0E4
:10190800DAFF000EDB8EB8EF0CF00250D8A48FEF90
:101918000CF091EF0CF09FEF0CF046C0D9FF47C0D8
:10192800DAFF480EDF6E46C0D9FF47C0DAFF000E67
:10193800DB8EB8EF0CF046C0D9FF47C0DAFF080EBF
:10194800DF6E46C0D9FF47C0DAFF000EDB8EB8EF66
:101958000CF000016DAFB3EF0CF0B5EF0CF0B6EF83
:101968000CF06D9F000E586E1200020130511F0BD3
:10197800E806D8B4C2EF0CF0C4EF0CF0C6EF0CF0D8
:1019880039EF0DF03039E832030BE806D8B4CFEF61
:101998000CF0D1EF0CF0D3EF0CF039EF0DF034511F
:1019A800D8B4D9EF0CF0DBEF0CF018EF0DF03405DC
:1019B800D8B4E1EF0CF0E3EF0CF018EF0DF039EFCD
:1019C8000DF0D90E406E000E416E000E456E080EE9
:1019D800446E4380438E39EF0DF0D90E406E000EF1
:1019E800416EEEEF0CF036C26EF037C26FF0E10ECA
:1019F80000016A6F000E6B6F000E706F000E716F42
:101A08006D8F39EF0DF0E10E406E000E416E000E45
:101A1800456E070E446EC10E436E39EF0DF032C2AB
:101A280090F0438E39EF0DF03151016E026A025089
:101A3800000AD8B422EF0DF039EF0DF00150000A7A
:101A4800D8B4E5EF0CF0010AD8B4F1EF0CF0210A94
:101A5800D8B4F7EF0CF0010AD8B407EF0DF0030A79
:101A6800D8B413EF0DF039EF0DF012005450D8A48C
:101A780040EF0DF042EF0DF0B1EF0DF0010E546E96
:101A880000019551D8A44BEF0DF04DEF0DF0B1EFDB
:101A98000DF0010E956F020E5818D8A456EF0DF0F0
:101AA80058EF0DF06DEF0DF020EE01F04650D926FD
:101AB8004750DA22DF6A46C0D9FF47C0DAFF480E2E
:101AC800DF6E46C0D9FF47C0DAFF000EDB8EB1EFEC
:101AD8000DF05804D8A473EF0DF075EF0DF0B1EFC9
:101AE8000DF0000E966F20EE01F05050D92651509F
:101AF800DA22080EDF6E20EE02F05050D92651503F
:101B0800DA22300EDE6E020EDD6E50C0D9FF51C0F3
:101B1800DAFF040EDF6E50C0D9FF51C0DAFF000EA5
:101B2800DB8E010E966F20EE01F04E50D9264F50F5
:101B3800DA22080EDF6E20EE02F04E50D9264F5002
:101B4800DA22300EDE6E020EDD6E4EC0D9FF4FC0B7
:101B5800DAFF800EDF6EB1EF0DF01200438E540EE7
:101B6800016E0F0E026E000E046E000E036E000E64
:101B7800066E020E056E24EC06F0000E016E020ED3
:101B8800026E000E046E000E036E000E066E300E1E
:101B9800056E24EC06F0648C000E176E890E17246F
:101BA800D96EDA6A000EDA22DF6A860E1724D96E39
:101BB800DA6A000EDA22DF6A172A020E1764E7EFE4
:101BC8000DF0E9EF0DF0D2EF0DF0E80E016E000E0A
:101BD800026E000E046E000E036E000E066E020EFC
:101BE800056E24EC06F0649C080E466E020E476EE5
:101BF800000E506E020E516E50C04EF051C04FF0A4
:101C080032C25DF05D50D8A40CEF0EF00EEF0EF06E
:101C180012EF0EF0100E5B6E22EF0EF0000E106E3B
:101C2800010E0F6E5D0E116E000E126E000E146E18
:101C3800010E136EDBEC0FF0200E5B6E12002D0E02
:101C4800566E5CC020F0FD0E2016D8A42EEF0EF0C4
:101C580030EF0EF072EF0EF05CC020F0D89020321A
:101C68003F0E20162050040D000EF324506E020E75
:101C7800F420516E50C04EF051C04FF0040E4E1873
:101C88004E6E4F504F6E50C0D9FF51C0DAFFDF3053
:101C9800E8320F0B0D0AD8A454EF0EF056EF0EF0F1
:101CA8006EEF0EF0300E016E020E026E20EE02F0A4
:101CB8005050D9265150DA22DECF03F0DDCF04F0A0
:101CC800000E066E080E056E11EC12F029EC10F0ED
:101CD8007EEF0EF071EC10F07EEF0EF05C50FD0B15
:101CE800040AD8A47AEF0EF07CEF0EF07EEF0EF027
:101CF80035EC0CF01200000E536E4C504D10D8B459
:101D080088EF0EF08AEF0EF095EF0EF04CC0D9FF79
:101D18004DC0DAFFDFBE93EF0EF095EF0EF0D7EF70
:101D28000EF020EE01F04C50D9264D50DA220E501C
:101D3800DE5CD8B0A2EF0EF0A4EF0EF0ACEF0EF020
:101D480020EE01F04C50D9264D50DA22DF500E6EAD
:101D5800000E536EBFEF0EF0800E5324D96EDA6A70
:101D6800020EDA2253500C24E16E000E0D20E26EB2
:101D7800DFCFE7FF532A0E50535CD8A0C6EF0EF012
:101D8800C8EF0EF0B0EF0EF0000E016E800E026E7E
:101D9800020E036E400E046E020E71EC09F001C0D3
:101DA8004CF002C04DF053501200086E000E096E40
:101DB800020E0A6E0150026E036AD890023603368C
:101DC8000850046E056AD89004360536D890043653
:101DD800053602500424066E03500520076ED8907D
:101DE80006360736D89006360736065009260750B5
:101DF8000A2209C0D9FF0AC0DAFFDF9E0150D8A421
:101E080008EF0FF00AEF0FF018EF0FF00850020D6F
:101E1800720EF324D96E000EF420DA6E09C0DEFFCC
:101E28000AC0DDFF24EF0FF00850020D460EF32420
:101E3800D96E000EF420DA6E09C0DEFF0AC0DDFF9D
:101E480009C0D9FF0AC0DAFFDF9C20EE04F0095070
:101E5800D9260A50DA22DF8C1200000E0001946F96
:101E6800000E936F020E5818D8A43DEF0FF03FEF05
:101E78000FF05FEF0FF020EE01F04E50D9264F50D3
:101E8800DA22080EDF6E20EE02F04E50D9264F50AF
:101E9800DA22380EDE6E020EDD6E4EC0D9FF4FC05C
:101EA800DAFF480EDF6E4EC0D9FF4FC0DAFF000ED2
:101EB800DB8E87EF0FF044500201365D45503759ED
:101EC800D8B069EF0FF06BEF0FF06FEF0FF036C27D
:101ED80044F037C245F027EC0BF020EE02F04650F4
:101EE800D9264750DA22380EDE6E020EDD6E46C065
:101EF800D9FF47C0DAFF480EDF6E46C0D9FF47C09A
:101F0800DAFF000EDB8E1200000E3A6E9CEF0FF027
:101F180016C0F6FF17C0F7FF1C0E3A24D96EDA6A0E
:101F2800000EDA220800F5CFDFFF164A172A3A2AF0
:101F380016C0F6FF17C0F7FF0800F5500009D8A42F
:101F4800A8EF0FF0AAEF0FF08CEF0FF01C0E3A2459
:101F5800086E096A000E092218C00AF019C00BF0B1
:101F68001BC00CF061EC04F01C0E016E000E026E3A
:101F78001AC003F051EC11F05CEC05F05A50D8A4EB
:101F8800C8EF0FF0CAEF0FF0DAEF0FF0DA0E036EBA
:101F98003F0E046E010E056E32EC13F01C0E016E3E
:101FA800000E026E1CEC11F05CEC05F01200EFEF75
:101FB8000FF0010EBEEC12F028EF10F0020EBEEC8E
:101FC80012F028EF10F085EC11F028EF10F0B9ECC2
:101FD8000CF028EF10F00FC015F010C016F01650D6
:101FE800000AD8B4FEEF0FF07F0AD8B421EF10F042
:101FF80028EF10F01550010AD8B4E7EF0FF0030AE4
:10200800D8B428EF10F0010AD8B4EBEF0FF0060AA5
:10201800D8B428EF10F0770AD8B428EF10F0010AE6
:10202800D8B428EF10F0070AD8B4E2EF0FF0010A8D
:10203800D8B4DDEF0FF028EF10F01550FF0AD8B430
:1020480028EF10F028EF10F01200000E596E000E65
:10205800556E000E0001946F000E936F000E966F80
:10206800000E586E46C0D9FF47C0DAFF7F0EDF1654
:10207800040E4618466E4750476E46C0D9FF47C003
:10208800DAFF7F0EDF16040E4618466E4750476E7D
:102098004EC0D9FF4FC0DAFF7F0EDF16000E436E29
:1020A800000E456E000E446E000E6D6F000E6F6FD1
:1020B800000E6E6F9DEC0AF0000E106E030E0F6E90
:1020C800000E116E000E126E000E146E000E136ECE
:1020D800DBEC0FF087EC07F01200020E5818D8A4BA
:1020E80078EF10F07AEF10F07EEF10F0CFEC08F0F8
:1020F800ABEF10F0000E586E00019651D8A487EF90
:1021080010F089EF10F0A9EF10F020EE01F04E501A
:10211800D9264F50DA22080EDF6E20EE02F04E501C
:10212800D9264F50DA22300EDE6E020EDD6E4EC01A
:10213800D9FF4FC0DAFF0C0EDF6E4EC0D9FF4FC07B
:10214800DAFF000EDB8EABEF10F0000E966F120078
:10215800000E066E000E056E03500410D8B4B7EFDB
:1021680010F0B9EF10F0E1EF10F0010E076EC1EFBB
:1021780010F0D89003360436072A04AEC6EF10F0E4
:10218800C8EF10F0BDEF10F0D890053606360350B2
:10219800015C04500258D8A0D4EF10F0D6EF10F02C
:1021A800DBEF10F00350015E0450025A0580D8900E
:1021B80004320332072EC8EF10F005C001F006C044
:1021C80002F0120003EF11F09EA8EDEF10F0EFEF10
:1021D80010F0E8EF10F001C0F6FF02C0F7FFF86A50
:1021E800020EF76403D00800F55005D0F6CFE9FFDA
:1021F800F7CFEAFFEF50AD6EAD50014A022A01C099
:10220800F6FF02C0F7FFF86A020EF76403D0080071
:10221800F55005D0F6CFE9FFF7CFEAFFEF500009F8
:10222800D8A419EF11F01BEF11F0E8EF10F012002D
:102238005A50D8B422EF11F024EF11F026EF11F024
:1022480050EF11F0000E056E01C003F002C004F05B
:10225800052A0528D8A433EF11F035EF11F037EF30
:1022680011F045EF11F003C0D9FF04C0DAFF034AAB
:10227800042ADF50D8A443EF11F045EF11F02CEFFA
:1022880011F001C083F002C084F005C052F0010EC5
:102298000001916F010E5A6E1200000E046E58EF85
:1022A80011F0014A022A042A01C0D9FF02C0DAFF4C
:1022B800DF50D8A462EF11F064EF11F055EF11F080
:1022C8000304D8A46AEF11F06CEF11F083EF11F05A
:1022D80001C0D9FF02C0DAFF0D0EDF6E014A022AE3
:1022E800042A01C0D9FF02C0DAFF0A0EDF6E014AD4
:1022F800022A042A01C0D9FF02C0DAFFDF6A0450AB
:102308001200000E0001E16F4B0EE26F000EE36F4A
:10231800000EE46F000EE56F000EE66F080EE76F23
:10232800000E536E1A0E0B6E010E39EC12F01E0ED3
:102338000B6E020E39EC12F0000E016E800E026E6A
:10234800020E036E400E046E020E71EC09F001C01D
:102358004CF002C04DF0000E00018C6F000E8D6F26
:10236800000E5A6E12000F0153A1BDEF11F0BFEF1E
:1023780011F0E6EF11F050C0D9FF51C0DAFF800E1E
:10238800DE18D8A4CAEF11F0CCEF11F0E5EF11F088
:1023980046C0D9FF47C0DAFF840EDE18D8A4D7EFAD
:1023A80011F0D9EF11F0E5EF11F050C0D9FF51C08D
:1023B800DAFF0C0EDF6E50C0D9FF51C0DAFF000EF5
:1023C800DB8E5391629A1200A40EF66E260EF76EFB
:1023D800000EF86E00EEEAF010EE10F00900F5CFEE
:1023E800EEFFE550E150FAE101EE00F0400EEE6A32
:1023F800E806FDE100EE60F08A0EEE6AE806FDE10F
:1024080000EE40F01E0EEE6AE806FDE15E905E9278
:10241800000EF86E0001B6EF01F003C009F004C029
:102428000AF001C007F002C008F02BEF12F009C053
:10243800D9FF0AC0DAFFDF500B6E094A0A2A07C023
:10244800D9FF08C0DAFF0BC0DFFF074A082A0506D4
:10245800D8A00606052806E10628D8A436EF12F00B
:1024680038EF12F01BEF12F012000E6E0BA43FEFC4
:1024780012F041EF12F046EF12F0000E016E0E500E
:10248800D9EC0EF00BA24BEF12F04DEF12F052EF19
:1024980012F0010E016E0E50D9EC0EF0530E0E2400
:1024A8000C6E0D6A0F0E0D220CC0D9FF0DC0DAFF9D
:1024B8000BC0DFFF120016C001F017C002F0E6ECF7
:1024C80010F01C0E086E000E096E18C00AF019C034
:1024D8000BF01BC00CF061EC04F01C0E016E000E3A
:1024E800026EE6EC10F01A04D8A47DEF12F07FEF2C
:1024F80012F081EF12F00AEC13F01200000E000146
:10250800976F000E106E740E0F6E000E116E000E97
:10251800126E000E146E000E136EDBEC0FF0649258
:10252800609498EF12F0629462B49DEF12F09FEFFE
:1025380012F097EF12F0000E0001926F1200000ED9
:10254800056E000E046EB2EF12F00D0E036EFC0E57
:10255800E82EFED7032EFCD7044A052A0150045C56
:1025680002500558D8A0BBEF12F0BDEF12F0A9EF4A
:1025780012F01200036E0350016E026A0250000A44
:10258800D8B4C9EF12F0D8EF12F00150000AD8B44D
:10259800D8EF12F0010AD8B4D8EF12F0030AD8B471
:1025A800D8EF12F0D8EF12F01200010E00017C27CC
:1025B800000E7D237E237F239751D8A4E6EF12F0E7
:1025C800E8EF12F0F2EF12F0922B9251D8A4EFEF4D
:1025D80012F0F1EF12F0F2EF12F09269120060843B
:1025E80062986482010E0001976F000E926F000ED0
:1025F800106E750E0F6E000E116E000E126E000E2C
:10260800146E000E136EDBEC0FF012009EA80FEF95
:1026180013F011EF13F00AEF13F00D0EAD6EAD507D
:102628009EA819EF13F01BEF13F014EF13F00A0E26
:10263800AD6EAD50120001500302F3CF05F0F4CF98
:1026480006F001500402F350062602500302F3502C
:10265800062605C001F006C002F0120003C001F012
:1026680004C002F0E6EC10F00504D8A43EEF13F025
:1026780040EF13F042EF13F00AEC13F012009EAA99
:1026880048EF13F04AEF13F04EEF13F0AECF01F01E
:1026980050EF13F0000E016E01501200303132334A
:0C26A8003435363738396162636465668A
:103EA00000663F203FEC3EA93E09024300020100AC
:103EB000C0320904000001020201000524001001C3
:103EC000042402020524060001052401000107055F
:103ED00081030A000209040100020A00000007052C
:103EE0000202400000070582024000003403430044
:103EF000440043002000520053002D0032003300E4
:103F00003200200045006D0075006C0061007400F7
:103F100069006F006E002000440065006D006F00B6
:103F200034034D006900630072006F006300680095
:103F300069007000200054006500630068006E0096
:103F40006F006C006F0067007900200049006E0070
:103F500063002E001201000202000008D8040A00CB
:103F6000000101020001040309042A2A2A2A2A2A3C
:103F70002A2A2A312A2A2A2A2A2A2A2A2A2A002AC4
:103F80002A2A2A2A2A2A2A2A322A2A2A2A2A2A2A89
:103F90002A2A2A0049324320696E697469616C6972
:103FA0007A65204572726F72002A2A2A2055415282
:103FB00054205354415254202A2A2A2A005541524F
:103FC000542D527864617461203D2000476574432C
:103FD00068614E756D72203D200070757473555385
:103FE00042555341525400554152544D61696E4CF3
:103FF0006F6F700047657443686172203D20000058
:020000040020DA
:08000000FFFFFFFFFFFFFFFF00
:020000040030CA
:0E0000000032011EFF0081FF03C003E0034039
:00000001FF
