:0400000007EF00F016
:100008005F825F92110093EF11F002013205D8A4CC
:1000180010EF00F012EF00F02EEF00F030511F0B40
:100028000009D8A41AEF00F01CEF00F02EEF00F042
:10003800428E030E3119D8A424EF00F026EF00F009
:100048002BEF00F0010E0001986F2EEF00F0000E6C
:100058000001986F02013251D8A435EF00F037EF54
:1000680000F0B5EF01F030511F0B020AD8A43FEFA2
:1000780000F041EF00F0B5EF01F034510F0B00092B
:10008800D8B449EF00F04BEF00F0B5EF01F0345170
:100098000F0B176E030E176054EF00F056EF00F0C9
:1000A800B5EF01F0200E5C18D8A45DEF00F05FEF0B
:1000B80000F0B5EF01F0428E34BF65EF00F067EF56
:1000C80000F084EF00F034510F0B176E1750020D3B
:1000D800720EF324D96E000EF420DA6EDECF1CF017
:1000E800DDCF1DF034510F0B176E186A860E1724DA
:1000F800D96E000E1820DA6EDF501B6E9FEF00F0ED
:1001080034510F0B176E1750020D450EF324D96E9C
:10011800000EF420DA6EDECF1CF0DDCF1DF0345176
:100128000F0B176E186A890E1724D96E000E182047
:10013800DA6EDF501B6E1BB0A4EF00F0A6EF00F0E4
:10014800AEEF00F0FB0E1C141C6EFF0E1D141D6E8E
:10015800B3EF00F0040E1C101C6E1D501D6E34BF52
:10016800B8EF00F0BAEF00F0CBEF00F034510F0B0E
:10017800176E1750020D720EF324D96E000EF4207C
:10018800DA6E1CC0DEFF1DC0DDFFDAEF00F034516F
:100198000F0B176E1750020D450EF324D96E000E83
:1001A800F420DA6E1CC0DEFF1DC0DDFF030E31191E
:1001B800D8A4E1EF00F0E3EF00F01DEF01F01CC060
:1001C800D9FF1DC0DAFFDFAEECEF00F0EEEF00F074
:1001D8000FEF01F034BFF3EF00F0F5EF00F003EF9D
:1001E80001F034510F0B176E186A860E1724D96E5A
:1001F800000E1820DA6E0001DF820FEF01F0345193
:100208000F0B176E186A890E1724D96E000E182066
:10021800DA6E0001DF821CC0D9FF1DC0DAFF000EB4
:10022800DB841CC0D9FF1DC0DAFF000EDB8EB5EFE2
:1002380001F0040E1C181C6E1D501D6E1CC0D9FF49
:100248001DC0DAFFDFAE2BEF01F02DEF01F049EF13
:1002580001F01CC0D9FF1DC0DAFF7F0EDF161CC0DD
:10026800D9FF1DC0DAFF000EDB8C000E106E050EE4
:100278000F6E1CC011F01DC012F0000E146E020E9D
:10028800136E95EC0EF04FEF01F01CC0D9FF1DC0A6
:10029800DAFF000EDB8C040E1C181C6E1D501D6E40
:1002A8001BB259EF01F05BEF01F066EF01F01CC0E3
:1002B800D9FF1DC0DAFFDFAE64EF01F066EF01F091
:1002C8009EEF01F0020134BF6CEF01F06EEF01F018
:1002D8007CEF01F034510F0B176E186A860E172445
:1002E800D96E000E1820DA6E0001DF9288EF01F057
:1002F80034510F0B176E186A890E1724D96E000E29
:100308001820DA6E0001DF921CC0D9FF1DC0DAFF89
:100318003B0EDF16000E106E050E0F6E1CC011F09E
:100328001DC012F0000E146E020E136E95EC0EF046
:10033800A4EF01F01CC0D9FF1DC0DAFF3B0EDF1689
:10034800020134510F0B176E186A530E1724196ED9
:100358000F0E18201A6E19C0D9FF1AC0DAFFFE0E48
:10036800DF1612005C50D8A4BCEF01F0BEEF01F01C
:10037800D5EF01F0000E646E000E606E160E616E11
:100388009F0E0F015B6F7B0E606ECCEF01F06486F1
:1003980064A6D1EF01F0D3EF01F0CBEF01F0010E2D
:1003A8005C6E5C04D8A4DBEF01F0DDEF01F0ECEF4C
:1003B80001F064BAE2EF01F0E4EF01F0ECEF01F0D4
:1003C800000E626E000E606E60806088020E5C6EC9
:1003D80062A4F1EF01F0F3EF01F0FDEF01F060A48A
:1003E800F8EF01F0FAEF01F0FDEF01F0629433EC61
:1003F80012F064A202EF02F004EF02F007EF02F03D
:10040800A194EAEF02F062A00CEF02F00EEF02F006
:100418001AEF02F060A013EF02F015EF02F01AEFE6
:1004280002F0CEEC06F0040E5C6E629062A81FEF3C
:1004380002F021EF02F02AEF02F060A826EF02F0A6
:1004480028EF02F02AEF02F0A1EC12F062AC2FEFD5
:1004580002F031EF02F05CEF02F060AC36EF02F030
:1004680038EF02F046EF02F0000E106E730E0F6EBA
:10047800000E116E000E126E000E146E010E136E39
:1004880095EC0EF0629C6FEC12F05750D8B44FEF19
:1004980002F051EF02F052EF02F057065750D8A47D
:1004A80058EF02F05AEF02F05CEF02F0D0EC0BF0DC
:1004B80062AA61EF02F063EF02F06CEF02F060AA4B
:1004C80068EF02F06AEF02F06CEF02F0CFEC10F088
:1004D80062A271EF02F073EF02F08AEF02F060A2FD
:1004E80078EF02F07AEF02F08AEF02F07F0E106EDA
:1004F8000F68000E116E000E126E000E146E010EC3
:10050800136E95EC0EF0000E0F015F6F040E5C6029
:1005180090EF02F092EF02F095EF02F0A194EAEF6B
:1005280002F060A69AEF02F09CEF02F0E9EF02F009
:10053800000E216E62A6A3EF02F0A5EF02F0E9EF2C
:1005480002F063CF5DF05D30E832E8320F0B586E91
:1005580062965DB4B2EF02F0B4EF02F0BEEF02F0C3
:10056800860E5824D96EDA6A000EDA220001DF708E
:10057800C6EF02F0890E5824D96EDA6A000EDA2224
:100588000001DF705850D8A4CCEF02F0CEEF02F093
:10059800D2EF02F084EC0DF0E0EF02F0000E106EE6
:1005A800720E0F6E5D0E116E000E126E000E146E3E
:1005B800000E136E95EC0EF0212A030E2164E7EF6E
:1005C80002F0E9EF02F09EEF02F0A1941200000E93
:1005D800116E000E106E0AC014F00BC015F00A0E52
:1005E8000C18D8A4FAEF02F0FCEF02F069EF03F060
:1005F800270E136E100E126E14C001F015C002F013
:1006080012C003F013C004F063EC10F001C014F042
:1006180002C015F010501110D8A415EF03F017EF11
:1006280003F032EF03F014501510D8B41EEF03F0A6
:1006380020EF03F03EEF03F0AB0E1424D96E000E4A
:100648001520DA6E08C0E1FF09C0E2FFDFCFE7FF3F
:10065800000E116E010E106E3EEF03F0AB0E142467
:10066800D96E000E1520DA6E08C0E1FF09C0E2FF5E
:10067800DFCFE7FF14C001F015C002F012C003F08D
:1006880013C004F0E3EC12F001500A5C146E02503F
:100698000B58156E084A092A12C001F013C002F05F
:1006A800000E046E0A0E036E63EC10F001C012F027
:1006B80002C013F012501310D8A465EF03F067EFCF
:1006C80003F000EF03F0E0EF03F008C0D9FF09C022
:1006D800DAFF300EDF6E084A092A08C0D9FF09C0C0
:1006E800DAFF780EDF6E084A092A0AC00DF00BC03F
:1006F8000EF00C0E0F6ED8900E320D320F2E7FEFCB
:1007080003F00F0E0D14146E156AAB0E1424D96E77
:10071800000E1520DA6E08C0E1FF09C0E2FFDFCF46
:10072800E7FF084A092A0AC00DF00BC00EF00EC0F8
:100738000DF00E6A0F0E0D14146E156AAB0E14240C
:10074800D96E000E1520DA6E08C0E1FF09C0E2FF7D
:10075800DFCFE7FF084A092A0AC00DF00BC00EF0E8
:10076800040E0F6ED8900E320D320F2EB6EF03F036
:100778000F0E0D14146E156AAB0E1424D96E000EEC
:100788001520DA6E08C0E1FF09C0E2FFDFCFE7FFFE
:10079800084A092A0F0E0A14146E156AAB0E14249F
:1007A800D96E000E1520DA6E08C0E1FF09C0E2FF1D
:1007B800DFCFE7FF084A092A08C0D9FF09C0DAFFD6
:1007C800DF6A120000018C518D11D8B4EEEF03F0EE
:1007D800F0EF03F0FDEF03F08CC0D9FF8DC0DAFF16
:1007E800DFAEF9EF03F0FBEF03F0FDEF03F0C5EF29
:1007F80004F0030E5B18D8A404EF04F006EF04F02D
:1008080008EF04F0000E5B6E5B50D8A40EEF04F006
:1008180010EF04F012EF04F0C5EF04F0020E5B18BD
:10082800D8A419EF04F01BEF04F02EEF04F0010E2A
:10083800016E000E026E000E036E000E046E020EB4
:1008480013EC08F001C08CF002C08DF0030E5B6E53
:10085800C5EF04F05B04D8A434EF04F036EF04F0DD
:10086800C5EF04F0400E53643CEF04F03EEF04F093
:1008780042EF04F0400E0D6E44EF04F053C00DF04B
:100888000D50535C536E400E806F020E816F0DC089
:100898000CF09151D8A453EF04F055EF04F097EF02
:1008A80004F072EF04F083C0F6FF84C0F7FFF86A23
:1008B80080C0D9FF81C0DAFF020EF76403D00800B8
:1008C800F55005D0F6CFE9FFF7CFEAFFEF50DF6E1E
:1008D8000001804B812B834B842B0C060C50D8A431
:1008E80078EF04F07AEF04F057EF04F09FEF04F08C
:1008F80083C0F6FF84C0F7FFF86A80C0D9FF81C0C3
:10090800DAFF020EF76403D00800F55005D0F6CFE1
:10091800E9FFF7CFEAFFEF50DF6E0001804B812B34
:10092800834B842B0C060C50D8A49DEF04F09FEF4A
:1009380004F07CEF04F05350D8A4A5EF04F0A7EF1F
:1009480004F0B6EF04F0400E0D18D8A4AEEF04F092
:10095800B0EF04F0B4EF04F0020E5B6EB6EF04F0F3
:10096800030E5B6E010E016E400E026E020E036EE8
:100978000DC004F0020E13EC08F001C08CF002C0A8
:100988008DF0120001C00BF002C00CF005500610EB
:10099800D8A4D1EF04F0D3EF04F0D5EF04F080EF42
:1009A80005F00BC0D9FF0CC0DAFF03C0DFFF05500C
:1009B8000B24076E06500C20086EFF0E0724D96E14
:1009C800FF0E0820DA6E03C0DFFF065007E1030EB2
:1009D800055CD8B0F2EF04F0F4EF04F0F6EF04F0A1
:1009E80080EF05F020EE01F00B50D9260C50DA22EA
:1009F80003C0DFFF20EE02F00B50D9260C50DA229C
:100A080003C0DFFF05500B24076E06500C20086E4C
:100A1800FE0E0724D96EFF0E0820DA6E03C0DFFF32
:100A280005500B24076E06500C20086EFD0E072497
:100A3800D96EFF0E0820DA6E03C0DFFF065007E10B
:100A4800070E055CD8B02BEF05F02DEF05F02FEF62
:100A580005F080EF05F020EE03F00B50D9260C507E
:100A6800DA2203C0DFFF05500B24076E06500C2066
:100A7800086EFC0E0724D96EFF0E0820DA6E03C03C
:100A8800DFFF065007E1090E055CD8B04EEF05F010
:100A980050EF05F052EF05F080EF05F00BC007F0BE
:100AA8000CC008F0071E081E074A082A030E071480
:100AB800096E0A6A09500B260A500C220950055E75
:100AC8000A50065AFC0E0516FF0E061677EF05F0BB
:100AD8000BC0D9FF0CC0DAFF03C0DFFF0506D8A0A2
:100AE80006060B4A0C2A05500610D8A47EEF05F01E
:100AF80080EF05F06CEF05F01200800E020130194E
:100B0800D8A489EF05F08BEF05F028EF06F0C00EAA
:100B1800426E0FEF06F0920E3F6E3F0E406E000ED3
:100B2800446E120E436E28EF06F03251D8A49FEFA0
:100B380005F0A1EF05F0DFEF05F03251020DE50EEB
:100B4800F324F66E3E0EF420F76E0900F5CF3FF061
:100B58000A00F5CF40F0020E3F24016E000E40203F
:100B6800026E01C0F6FF02C0F7FFF86A020EF764D2
:100B780003D00800F55005D0F6CFE9FFF7CFEAFF1C
:100B8800EF50436E030E3F24016E000E4020026EAC
:100B980001C0F6FF02C0F7FFF86A020EF76403D03F
:100BA8000800F55005D0F6CFE9FFF7CFEAFFEF5080
:100BB800446E28EF06F0000E426E28EF06F0030E92
:100BC8003261E9EF05F0EBEF05F0DFEF05F03251A8
:100BD800020DDF0EF324F66E3E0EF420F76E0900C8
:100BE800F5CF3FF00A00F5CF40F03FC0F6FF40C018
:100BF800F7FFF86A020EF76403D00800F55005D035
:100C0800F6CFE9FFF7CFEAFFEF50016E0150436ED0
:100C1800446A28EF06F03351016E026A0250000A56
:100C2800D8B419EF06F0DFEF05F00150010AD8B487
:100C38008FEF05F0030AD8B499EF05F0010AD8B48C
:100C4800E3EF05F0DFEF05F01200649842BE2FEFE6
:100C580006F031EF06F078EF06F000016DAF37EFE0
:100C680006F039EF06F04CEF06F0020E596E93517C
:100C7800D8A441EF06F043EF06F045EF06F045EC47
:100C88000FF0000E0001956F000E556ECDEF06F0C7
:100C980020EE01F04D50D9264E50DA22080EDF6EB4
:100CA80020EE02F04D50D9264E50DA22300EDE6E7C
:100CB800020EDD6E4DC0D9FF4EC0DAFF0C0EDF6E9E
:100CC8004DC0D9FF4EC0DAFF000EDB8E45C0D9FFFC
:100CD80046C0DAFF040EDF6E45C0D9FF46C0DAFF12
:100CE800000EDB8ECDEF06F0020130AF7EEF06F08E
:100CF80080EF06F09EEF06F0010E596E0001945148
:100D0800D8A489EF06F08BEF06F08DEF06F045ECDE
:100D18000FF0000E0001956F000E556E5650D8A4C6
:100D280098EF06F09AEF06F0CDEF06F0D0EC0BF056
:100D3800CDEF06F0020E596E20EE01F04D50D92687
:100D48004E50DA22080EDF6E20EE02F04D50D92602
:100D58004E50DA22300EDE6E020EDD6E4DC0D9FF27
:100D68004EC0DAFF040EDF6E4DC0D9FF4EC0DAFF69
:100D7800000EDB8E000E0001956F000E556E56506A
:100D8800D8A4C9EF06F0CBEF06F0CDEF06F09AEF46
:100D980006F01200A094000E0F015F6F000E626E45
:100DA800000E536F540E016E0F0E026E000E046E8D
:100DB800000E036E000E066E020E056EC6EC04F001
:100DC800160E616E9F0E0F015B6F7B0E606E000E3C
:100DD8000D6E0D50040D000EF324D96E020EF42092
:100DE800DA6EDE6ADE6ADE6ADD6A0D2A0B0E0D64D3
:100DF80000EF07F002EF07F0EDEF06F0648C000E4D
:100E08000F015C6F6498649C6296000E426E000E3F
:100E180000016D6F000E6F6F000E6E6F62B617EFF8
:100E280007F019EF07F008EF07F0010E556E010EF5
:100E3800956F000E946F000E936F000E976F000E63
:100E48000D6E0D50020D450EF324D96E000EF420E0
:100E5800DA6EDE6ADD6A0D50020D720EF324D96E69
:100E6800000EF420DA6EDE6ADD6A890E0D24D96E72
:100E7800DA6A000EDA22DF6A860E0D24D96EDA6A83
:100E8800000EDA22DF6A0D2A020E0D644EEF07F01B
:100E980050EF07F025EF07F0080E456E020E466E7C
:100EA800160E0F01536F020E0201036F300E026F10
:100EB800080E016F040E006F008F000E5E6E000EAC
:100EC80000017C6F000E7D6F000E7E6F000E7F6F3D
:100ED800000E926F000E5C6E120020EE01F04F5073
:100EE800D9265050DA22DF50026E025000016E5DA2
:100EF800000E6F59D8B083EF07F085EF07F087EF42
:100F080007F06EC002F002506E5F000E6F5B000EBD
:100F1800016E9EEF07F0380E0124D96EDA6A020ED0
:100F2800DA226AC0E1FF6BC0E2FFDFCFE7FF6A4B5E
:100F38006B2B012A0250015CD8A0A5EF07F0A7EFA0
:100F480007F08FEF07F06E516F11D8B4AEEF07F0CE
:100F5800B0EF07F0E9EF07F020EE01F04D50D92689
:100F68004E50DA22080EDF6E20EE02F04D50D926E0
:100F78004E50DA22380EDE6E020EDD6E4FC0D9FFFB
:100F880050C0DAFFDFBCCBEF07F0CDEF07F0DBEFA7
:100F980007F04DC0D9FF4EC0DAFF480EDF6E4DC0D6
:100FA800D9FF4EC0DAFF000EDB8E12EF08F04DC0FD
:100FB800D9FF4EC0DAFF080EDF6E4DC0D9FF4EC014
:100FC800DAFF000EDB8E12EF08F020EE01F04D5034
:100FD800D9264E50DA22080EDF6E20EE02F04D5070
:100FE800D9264E50DA22300EDE6E020EDD6E4DC06E
:100FF800D9FF4EC0DAFF040EDF6E4DC0D9FF4EC0D8
:10100800DAFF000EDB8E6D9F5650D8A40EEF08F065
:1010180010EF08F012EF08F0D0EC0BF01200096E98
:101028000150D8B41AEF08F01CEF08F02AEF08F0C6
:101038000950020D450EF324D96E000EF420DA6E25
:10104800DECF0AF0DDCF0BF036EF08F00950020DC5
:10105800720EF324D96E000EF420DA6EDECF0AF099
:10106800DDCF0BF00A500B10D8A43DEF08F03FEF8E
:1010780008F045EF08F0000E016E000E026EB1EFA9
:1010880008F020EE02F00A50D9260B50DA2202C0EE
:10109800DEFF03C0DDFF20EE01F00A50D9260B5019
:1010A800DA2204C0DFFF0AC0D9FF0BC0DAFF400E06
:1010B800DF160AC0D9FF0BC0DAFF000EDB860AC0B4
:1010C800D9FF0BC0DAFF000EDB8E0150D8B46FEFEA
:1010D80008F071EF08F090EF08F00950020D450E86
:1010E800F324D96E000EF420DA6EDECF05F0DDCFE2
:1010F80006F0040E0518076E0650086E0950020D1A
:10110800450EF324D96E000EF420DA6E07C0DEFF18
:1011180008C0DDFFADEF08F00950020D720EF32490
:10112800D96E000EF420DA6EDECF05F0DDCF06F0C2
:10113800040E0518076E0650086E0950020D720E4F
:10114800F324D96E000EF420DA6E07C0DEFF08C063
:10115800DDFF0AC001F00BC002F01200000E020110
:10116800386F000E396F16EF09F0428E00019805AE
:10117800D8A4C1EF08F0C3EF08F030EF09F002017E
:10118800388330EF09F0428E30EF09F0428E345147
:101198000F0B0009D8B4D3EF08F0D5EF08F030EF03
:1011A80009F034BFDAEF08F0DCEF08F0EDEF08F0F3
:1011B80034510F0B016E0150020D720EF324D96EDB
:1011C800000EF420DA6EDECF03F0DDCF04F0FCEF82
:1011D80008F034510F0B016E0150020D450EF32437
:1011E800D96E000EF420DA6EDECF03F0DDCF04F006
:1011F80003C0D9FF04C0DAFFDFAE05EF09F007EF3F
:1012080009F030EF09F003C0D9FF04C0DAFFDFA40A
:1012180010EF09F012EF09F030EF09F0010E386F06
:1012280030EF09F030511F0B016E026A0250000ABC
:10123800D8B421EF09F030EF09F00150000AD8B412
:10124800B9EF08F0010AD8B4C7EF08F0030AD8B418
:10125800CAEF08F030EF09F042AE35EF09F037EF8A
:1012680009F03EEF09F0380E3F6E020E406E4280E4
:10127800020E436E120002013039E832030B0009F6
:10128800D8B449EF09F04BEF09F08FEF09F0C8EF38
:1012980009F0428E080E5C6EC8EF09F081EC05F08B
:1012A800C8EF09F048EC0CF0C8EF09F05E0E3F6E8D
:1012B800000E406E4280010E436E428EC8EF09F068
:1012C800B2EC08F0C8EF09F009EC00F0C8EF09F03B
:1012D800A90E34253F6E406A000E40225EEF09F0E9
:1012E800428EA90E3425D96EDA6A000EDA2232C28D
:1012F800DFFFC8EF09F0000E106E020E0F6E000E31
:10130800116E000E126E000E146E000E136E95EC28
:101318000EF0C8EF09F031511E6E1F6A1F50000A07
:10132800D8B499EF09F0C8EF09F01E50000AD8B4F4
:1013380064EF09F0010AD8B468EF09F0020AD8B4DA
:1013480068EF09F0060AD8B44DEF09F0030AD8B4DB
:1013580052EF09F0010AD8B47FEF09F00F0AD8B4A8
:101368005AEF09F0010AD8B456EF09F0030AD8B4C5
:101378006CEF09F0010AD8B474EF09F0070AD8B481
:10138800C8EF09F0C8EF09F01200080E016E4450CA
:1013980007E1080E435CD8B0D4EF09F0D6EF09F0A6
:1013A800EEEF09F043C001F05A50D8A4DEEF09F07F
:1013B800E0EF09F0E4EF09F0010E5A6EEEEF09F0E4
:1013C8005A04D8A4EAEF09F0ECEF09F0EEEF09F0BF
:1013D800020E5A6E0150435E000E445A20EE01F090
:1013E8004550D9264650DA2201C0DFFF380E0001E9
:1013F8008E6F020E8F6F42B004EF0AF006EF0AF00C
:1014080048EF0AF023EF0AF03FC0F6FF40C0F7FFAD
:10141800F86A8EC0D9FF8FC0DAFF020EF76403D0D6
:101428000800F55005D0F6CFE9FFF7CFEAFFEF50F7
:10143800DF6E3F4A402A00018E4B8F2B0106015078
:10144800D8A429EF0AF02BEF0AF008EF0AF050EFC2
:101458000AF03FC0F6FF40C0F7FFF86A8EC0D9FF18
:101468008FC0DAFF020EF76403D00800F55005D0EC
:10147800F6CFE9FFF7CFEAFFEF50DF6E3F4A402A89
:1014880000018E4B8F2B01060150D8A44EEF0AF0B5
:1014980050EF0AF02DEF0AF0120045C0D9FF46C000
:1014A800DAFF000EDFBC010E026E040E4518456E11
:1014B8004650466E080E5C18D8A465EF0AF067EF30
:1014C8000AF07AEF0AF0020132517F0B0F015C6FCC
:1014D8005C51D8B472EF0AF074EF0AF078EF0AF0B2
:1014E800100E5C6E7AEF0AF0040E5C6E5904D8A4F4
:1014F80080EF0AF082EF0AF0C9EF0AF020EE02F05E
:101508004550D9264650DA22380EDE6E020EDD6EC0
:10151800C9EC09F0020E5A18D8A495EF0AF097EF13
:101528000AF0A5EF0AF045C0D9FF46C0DAFF040E5D
:10153800DF6E45C0D9FF46C0DAFF000EDB8ED4EF60
:101548000AF00250D8A4ABEF0AF0ADEF0AF0BBEFF7
:101558000AF045C0D9FF46C0DAFF480EDF6E45C025
:10156800D9FF46C0DAFF000EDB8ED4EF0AF045C083
:10157800D9FF46C0DAFF080EDF6E45C0D9FF46C066
:10158800DAFF000EDB8ED4EF0AF000016DAFCFEF6B
:101598000AF0D1EF0AF0D2EF0AF06D9F000E596EF3
:1015A8001200020130511F0BE806D8B4DEEF0AF032
:1015B800E0EF0AF0E2EF0AF055EF0BF03039E832CD
:1015C800030BE806D8B4EBEF0AF0EDEF0AF0EFEF03
:1015D8000AF055EF0BF03451D8B4F5EF0AF0F7EFF5
:1015E8000AF034EF0BF03405D8B4FDEF0AF0FFEF42
:1015F8000AF034EF0BF055EF0BF09A0E3F6E000E29
:10160800406E000E446E080E436E4280428E55EFC7
:101618000BF09A0E3F6E000E406E0AEF0BF036C2CA
:101628006EF037C26FF0A20E00016A6F000E6B6F8A
:10163800000E706F000E716F6D8F55EF0BF0A20EDC
:101648003F6E000E406E000E446E070E436EC10ED4
:10165800426E55EF0BF032C290F0428E55EF0BF010
:101668003151016E026A0250000AD8B43EEF0BF005
:1016780055EF0BF00150000AD8B401EF0BF0010A46
:10168800D8B40DEF0BF0210AD8B413EF0BF0010A10
:10169800D8B423EF0BF0030AD8B42FEF0BF055EFB3
:1016A8000BF0120064A25BEF0BF05DEF0BF0BCEFE8
:1016B8000BF0010E62EC11F0CFEF0BF05104521059
:1016C800D8A469EF0BF06BEF0BF070EF0BF0010E85
:1016D80031EC11F0CDEF0BF04B0E51185210D8A48D
:1016E80078EF0BF07AEF0BF07FEF0BF0010E62EC66
:1016F80011F0CDEF0BF0525009E1970E515CD8A0D4
:1017080088EF0BF08AEF0BF090EF0BF0000E526EA3
:10171800000E516ECDEF0BF0CDEF0BF051045210CF
:10172800D8A499EF0BF09BEF0BF0A0EF0BF0010E94
:1017380031EC11F0CDEF0BF0320E51185210D8A445
:10174800A8EF0BF0AAEF0BF0AFEF0BF0010E62EC75
:1017580011F0CDEF0BF0B70E515C030E5258D8A024
:10176800B8EF0BF0BAEF0BF0CDEF0BF08AEF0BF000
:101778005C50046E056A0550000AD8B4C6EF0BF039
:1017880092EF0BF00450200AD8B462EF0BF092EFFE
:101798000BF0514A522A12005550D8A4D6EF0BF03C
:1017A800D8EF0BF047EF0CF0010E556E0001955184
:1017B800D8A4E1EF0BF0E3EF0BF047EF0CF0010ECC
:1017C800956F020E5918D8A4ECEF0BF0EEEF0BF062
:1017D80003EF0CF020EE01F04550D9264650DA22EE
:1017E800DF6A45C0D9FF46C0DAFF480EDF6E45C044
:1017F800D9FF46C0DAFF000EDB8E47EF0CF0590424
:10180800D8A409EF0CF00BEF0CF047EF0CF0000E2A
:10181800966F20EE01F04F50D9265050DA22080E6C
:10182800DF6E20EE02F04F50D9265050DA22300EEB
:10183800DE6E020EDD6E4FC0D9FF50C0DAFF040E17
:10184800DF6E4FC0D9FF50C0DAFF000EDB8E010EED
:10185800966F20EE01F04D50D9264E50DA22080E30
:10186800DF6E20EE02F04D50D9264E50DA22300EAF
:10187800DE6E020EDD6E4DC0D9FF4EC0DAFF800E5F
:10188800DF6E47EF0CF01200428E540E016E0F0E01
:10189800026E000E046E000E036E000E066E020E3F
:1018A800056EC6EC04F0000E016E020E026E000E0C
:1018B800046E000E036E000E066E300E056EC6EC4A
:1018C80004F0648C000E176E890E1724D96EDA6A3C
:1018D800000EDA22DF6A860E1724D96EDA6A000E45
:1018E800DA22DF6A172A020E17647DEF0CF07FEF09
:1018F8000CF068EF0CF0A90E016E000E026E000EDF
:10190800046E000E036E000E066E020E056EC6EC27
:1019180004F0649C080E456E020E466E000E4F6E73
:10192800020E506E4FC04DF050C04EF032C25EF005
:101938005E50D8A4A2EF0CF0A4EF0CF0A8EF0CF0C6
:10194800100E5C6EB8EF0CF0000E106E010E0F6EEC
:101958005E0E116E000E126E000E146E010E136EE6
:1019680095EC0EF0200E5C6E1200CEEC06F0C5EF82
:101978000CF0B6EC01F0000E026E010E016E54EC94
:1019880012F01F0E5C64CBEF0CF0CDEF0CF0BDEF46
:101998000CF064B2D2EF0CF0D4EF0CF0BDEF0CF009
:1019A800A80E0E6E3F0E0F6E010E106E89EC12F02F
:1019B800E6EF0CF0B6EC01F0000E026E010E016EBF
:1019C80054EC12F01F0E5C64ECEF0CF0EEEF0CF030
:1019D800DEEF0CF064B2F3EF0CF0F5EF0CF0DEEF95
:1019E8000CF0D20E0E6E3F0E0F6E010E106E89ECCB
:1019F80012F007EF0DF0B6EC01F0000E026E010ECA
:101A0800016E54EC12F01F0E5C640DEF0DF00FEF39
:101A18000DF0FFEF0CF064B214EF0DF016EF0DF0BF
:101A2800FFEF0CF0BD0E0E6E3F0E0F6E010E106E26
:101A380089EC12F01200000E046E26EF0DF0014A38
:101A4800022A042A01C0F6FF02C0F7FFF86A020E54
:101A5800F76403D00800F55005D0F6CFE9FFF7CFBB
:101A6800EAFFEF500009D8A43CEF0DF03EEF0DF06F
:101A780023EF0DF00304D8A444EF0DF046EF0DF06A
:101A880082EF0DF001C0F6FF02C0F7FFF86A020E00
:101A9800F76404D00D0EF56E0C0006D0F6CFE9FF02
:101AA800F7CFEAFF0D0EEF6E014A022A042A01C0A1
:101AB800F6FF02C0F7FFF86A020EF76404D00A0EB8
:101AC800F56E0C0006D0F6CFE9FFF7CFEAFF0A0E55
:101AD800EF6E014A022A042A01C0F6FF02C0F7FF8E
:101AE800F86A020EF76404D0000EF56E0C0006D0FA
:101AF800F6CFE9FFF7CFEAFF000EEF6E04501200B1
:101B08002D0E576E5DC020F0FD0E2016D8A48FEF65
:101B18000DF091EF0DF0D3EF0DF05DC020F0D890EF
:101B280020323F0E20162050040D000EF3244F6E75
:101B3800020EF420506E4FC04DF050C04EF0040E0F
:101B48004D184D6E4E504E6E4FC0D9FF50C0DAFF43
:101B5800DF30E8320F0B0D0AD8A4B5EF0DF0B7EF60
:101B68000DF0CFEF0DF0300E016E020E026E20EE7A
:101B780002F04F50D9265050DA22DECF03F0DDCFE5
:101B880004F0000E066E080E056EC0EC11F09CEC19
:101B98000FF0DFEF0DF028EC10F0DFEF0DF05D50E7
:101BA800FD0B040AD8A4DBEF0DF0DDEF0DF0DFEF3D
:101BB8000DF051EC0AF01200000ED36E000E7E6E8E
:101BC800000E7F6E000E926E000E936E000E946EE5
:101BD800000E806E000E816E000E826EB9EC0CF065
:101BE800B6EC01F0000E0C6E010E0D6E400E0E6E7E
:101BF8003BEC0EF03E6E3E50D8B405EF0EF007EF0A
:101C08000EF0F4EF0DF0E60E166E3F0E176E3EC0A6
:101C180018F0196A010E1A6E100E1B6EE4EC0FF024
:101C2800000E3D6E2EEF0EF0F40E166E3F0E176E80
:101C3800000E3D24D96EDA6A010EDA22DF503C6EBE
:101C48003C50186E196A010E1A6E100E1B6EE4ECE9
:101C58000FF03D2A3E503D5CD8A035EF0EF037EF2F
:101C68000EF018EF0EF0F4EF0DF007EF00F0000E95
:101C7800546E4B504C10D8B444EF0EF046EF0EF0B3
:101C880051EF0EF04BC0D9FF4CC0DAFFDFBE4FEF6B
:101C98000EF051EF0EF093EF0EF020EE01F04B50E6
:101CA800D9264C50DA220E50DE5CD8B05EEF0EF02A
:101CB80060EF0EF068EF0EF020EE01F04B50D926E1
:101CC8004C50DA22DF500E6E000E546E7BEF0EF091
:101CD800800E5424D96EDA6A020EDA2254500C248B
:101CE800E16E000E0D20E26EDFCFE7FF542A0E50A2
:101CF800545CD8A082EF0EF084EF0EF06CEF0EF07B
:101D0800000E016E800E026E020E036E400E046E0F
:101D1800020E13EC08F001C04BF002C04CF0545016
:101D28001200B3EF0EF056EC0BF0ECEF0EF056ECA1
:101D38000BF0010E0EEC12F0ECEF0EF056EC0BF07F
:101D4800020E0EEC12F0ECEF0EF09DEC10F0F6EC3B
:101D580012F0ECEF0EF0D5EC0AF0ECEF0EF00FC03D
:101D680015F010C016F01650000AD8B4C2EF0EF0E5
:101D78007F0AD8B4E5EF0EF0ECEF0EF01550010A2B
:101D8800D8B4A9EF0EF0030AD8B4ECEF0EF0010AAC
:101D9800D8B4AFEF0EF0060AD8B4ECEF0EF0770A1D
:101DA800D8B4ECEF0EF0010AD8B497EF0EF0070A9A
:101DB800D8B4A2EF0EF0010AD8B49BEF0EF0ECEF06
:101DC8000EF01550FF0AD8B4ECEF0EF0ECEF0EF061
:101DD8001200086E000E096E020E0A6E0150026EA5
:101DE800036AD890023603360850046E056AD89004
:101DF80004360536D8900436053602500424066E9B
:101E080003500520076ED89006360736D890063658
:101E180007360650092607500A2209C0D9FF0AC00A
:101E2800DAFFDF9E0150D8A41CEF0FF01EEF0FF071
:101E38002CEF0FF00850020D720EF324D96E000E2D
:101E4800F420DA6E09C0DEFF0AC0DDFF38EF0FF0BC
:101E58000850020D450EF324D96E000EF420DA6EF8
:101E680009C0DEFF0AC0DDFF09C0D9FF0AC0DAFFDA
:101E7800DF9C20EE04F00950D9260A50DA22DF8CC4
:101E88001200000E0001946F000E936F020E591895
:101E9800D8A451EF0FF053EF0FF073EF0FF020EECF
:101EA80001F04D50D9264E50DA22080EDF6E20EE92
:101EB80002F04D50D9264E50DA22380EDE6E020E50
:101EC800DD6E4DC0D9FF4EC0DAFF480EDF6E4DC043
:101ED800D9FF4EC0DAFF000EDB8E9BEF0FF04350A8
:101EE8000201365D44503759D8B07DEF0FF07FEFCF
:101EF8000FF083EF0FF036C243F037C244F0C9EC5D
:101F080009F020EE02F04550D9264650DA22380E64
:101F1800DE6E020EDD6E45C0D9FF46C0DAFF480E00
:101F2800DF6E45C0D9FF46C0DAFF000EDB8E120017
:101F3800000E5A6E000E566E000E0001946F000ED1
:101F4800936F000E966F000E596E45C0D9FF46C0BC
:101F5800DAFF7F0EDF16040E4518456E4650466EB2
:101F680045C0D9FF46C0DAFF7F0EDF16040E4518BC
:101F7800456E4650466E4DC0D9FF4EC0DAFF7F0E03
:101F8800DF16000E426E000E446E000E436E000E09
:101F98006D6F000E6F6F000E6E6F3FEC09F0000E54
:101FA800106E030E0F6E000E116E000E126E000EF4
:101FB800146E000E136E95EC0EF029EC06F012006C
:101FC800000E3B6EF8EF0FF016C0F6FF17C0F7FFD4
:101FD8001C0E3B24D96EDA6A000EDA220800F5CF0F
:101FE800DFFF164A172A3B2A16C0F6FF17C0F7FF6D
:101FF8000800F5500009D8A404EF10F006EF10F01F
:10200800E8EF0FF01C0E3B24086E096A000E092247
:1020180018C00AF019C00BF01BC00CF0EBEC02F072
:102028001C0E016E000E026E1AC003F01FEC0DF0BC
:102038003A6E1C0E016E000E026E3AC003F0CFEC31
:1020480012F0E6EC03F01200020E5918D8A42FEF94
:1020580010F031EF10F035EF10F071EC07F062EF8F
:1020680010F0000E596E00019651D8A43EEF10F002
:1020780040EF10F060EF10F020EE01F04D50D9263F
:102088004E50DA22080EDF6E20EE02F04D50D926AF
:102098004E50DA22300EDE6E020EDD6E4DC0D9FFD4
:1020A8004EC0DAFF0C0EDF6E4DC0D9FF4EC0DAFF0E
:1020B800000EDB8E62EF10F0000E966F1200000E1D
:1020C800066E000E056E03500410D8B46EEF10F0C3
:1020D80070EF10F098EF10F0010E076E78EF10F027
:1020E800D89003360436072A04AE7DEF10F07FEF50
:1020F80010F074EF10F0D890053606360350015CE6
:1021080004500258D8A08BEF10F08DEF10F092EF2A
:1021180010F00350015E0450025A0580D890043232
:102128000332072E7FEF10F005C001F006C002F061
:102138001200000E0001A26F4B0EA36F000EA46FD9
:10214800000EA56F000EA66F000EA76F080EA86FF1
:10215800000E546E1A0E0B6E010EE8EC11F01E0EF6
:102168000B6E020EE8EC11F0000E016E800E026E8E
:10217800020E036E400E046E020E13EC08F001C04E
:102188004BF002C04CF0000E00018C6F000E8D6FFA
:10219800000E5B6E12000F0153A1D5EF10F0D7EFC0
:1021A80010F0FEEF10F04FC0D9FF50C0DAFF800EDC
:1021B800DE18D8A4E2EF10F0E4EF10F0FDEF10F015
:1021C80045C0D9FF46C0DAFF840EDE18D8A4EFEF69
:1021D80010F0F1EF10F0FDEF10F04FC0D9FF50C034
:1021E800DAFF0C0EDF6E4FC0D9FF50C0DAFF000EC9
:1021F800DB8E5391629A1200036E0FEF11F09490E8
:1022080030EF11F0949230EF11F0949430EF11F018
:10221800949630EF11F00350016E026A0250000AE2
:10222800D8B419EF11F030EF11F00150000AD8B40A
:1022380030EF11F0010AD8B403EF11F0030AD8B453
:1022480006EF11F0010AD8B409EF11F0070AD8B463
:102258000CEF11F030EF11F01200036E40EF11F0A7
:102268008B8061EF11F08B8261EF11F08B8461EF4D
:1022780011F08B8661EF11F00350016E026A025073
:10228800000AD8B44AEF11F061EF11F00150000ACA
:10229800D8B461EF11F0010AD8B434EF11F0030A91
:1022A800D8B437EF11F0010AD8B43AEF11F0070AA1
:1022B800D8B43DEF11F061EF11F01200036E71EF29
:1022C80011F08B9092EF11F08B9292EF11F08B94AA
:1022D80092EF11F08B9692EF11F00350016E026AA3
:1022E8000250000AD8B47BEF11F092EF11F00150C0
:1022F800000AD8B492EF11F0010AD8B465EF11F0D2
:10230800030AD8B468EF11F0010AD8B46BEF11F0E2
:10231800070AD8B46EEF11F092EF11F01200100E08
:10232800F66E260EF76E000EF86E00EEABF010EEAD
:1023380022F00900F5CFEEFFE550E150FAE101EE99
:1023480000F011EE00F0EE6AE550E150FCE1E250D9
:10235800FAE100EE60F04B0EEE6AE806FDE100EEF1
:102368003FF0200EEE6AE806FDE15F905F92000EF6
:10237800F86E0001E0EF0DF003C009F004C00AF0A8
:1023880001C007F002C008F0DAEF11F009C0D9FF68
:102398000AC0DAFFDF500B6E094A0A2A07C0D9FFC4
:1023A80008C0DAFF0BC0DFFF074A082A0506D8A0D5
:1023B8000606052806E10628D8A4E5EF11F0E7EFA0
:1023C80011F0CAEF11F012000E6E0BA4EEEF11F02F
:1023D800F0EF11F0F5EF11F0000E016E0E50EDEC7C
:1023E8000EF00BA2FAEF11F0FCEF11F001EF12F072
:1023F800010E016E0E50EDEC0EF0530E0E240C6E15
:102408000D6A0F0E0D220CC0D9FF0DC0DAFF0BC0EC
:10241800DFFF1200066E19EF12F0010E00EC11F04A
:10242800010EB8EC12F032EF12F00650046E056A95
:102438000550000AD8B423EF12F032EF12F004501E
:10244800000AD8B411EF12F0010AD8B432EF12F032
:10245800030AD8B432EF12F032EF12F01200000E75
:102468000001976F000E106E740E0F6E000E116E45
:10247800000E126E000E146E000E136E95EC0EF028
:102488006492609449EF12F0629462B44EEF12F0D5
:1024980050EF12F048EF12F0000E0001926F120098
:1024A800000E056E000E046E63EF12F00D0E036E43
:1024B800FC0EE82EFED7032EFCD7044A052A01504D
:1024C800045C02500558D8A06CEF12F06EEF12F0C1
:1024D8005AEF12F01200010E00017C27000E7D2336
:1024E8007E237F239751D8A47CEF12F07EEF12F061
:1024F80088EF12F0922B9251D8A485EF12F087EF53
:1025080012F088EF12F0926912000EC011F00FC09D
:1025180012F011C001F012C002F010C003F01FEC5D
:102528000DF0136E0EC001F00FC002F013C003F0DF
:10253800CFEC12F0E6EC03F012006084629864823B
:10254800010E0001976F000E926F000E106E750E4F
:102558000F6E000E116E000E126E000E146E000E3D
:10256800136E95EC0EF01200036E0350016E026AB2
:102578000250000AD8B4C3EF12F0CEEF12F00150A7
:10258800000AD8B4CEEF12F0010AD8B4CEEF12F098
:10259800CEEF12F012005B50D8A4D5EF12F0D7EFAF
:1025A80012F0E2EF12F001C083F002C084F003C021
:1025B80053F0010E0001916F010E5B6E1200015085
:1025C8000302F3CF05F0F4CF06F001500402F350F4
:1025D800062602500302F350062605C001F006C085
:1025E80002F01200000E0001A66F080EA86F000E80
:1025F800A76F800EA26F250EA36F000EA46F000EAA
:10260800A56F000E996F12003031323334353637EA
:102618003839616263646566427574746F6E2070E0
:0A2628007265737365642E0D0A00DD
:103EDE0000A43F5E3F2A3FE73E0902430002010075
:103EEE00C032090400000102020100052400100185
:103EFE000424020205240600010524010001070521
:103F0E0081030A000209040100020A0000000705ED
:103F1E000202400000070582024000003403430005
:103F2E00440043002000520053002D0032003300A5
:103F3E003200200045006D0075006C0061007400B9
:103F4E0069006F006E002000440065006D006F0078
:103F5E0034034D006900630072006F006300680057
:103F6E0069007000200054006500630068006E0058
:103F7E006F006C006F0067007900200049006E0032
:103F8E0063002E001201000202000008D8040A008D
:103F9E00000101020001040309042A2A2A2A2A2AFE
:103FAE002A2A2A312A2A2A2A2A2A2A2A2A2A002A86
:103FBE002A2A2A2A2A2A2A2A322A2A2A2A2A2A2A4B
:103FCE002A2A2A002A2A2A20554152542053544183
:103FDE005254202A2A2A2A004765744368614E7576
:103FEE006D72203D200047657443686172203D204C
:023FFE000000C1
:020000040020DA
:08000000FFFFFFFFFFFFFFFF00
:020000040030CA
:0E0000000032011EFF0081FF03C003E0034039
:00000001FF
