:0400000007EF00F016
:0A0008005D825D92110020EF11F0FF
:1003000000C60380034C03090309024300020100F5
:10031000C03209040000010202010005240010019E
:10032000042402020524060001052401000107053A
:1003300081030A000209040100020A000000070507
:10034000020240000007058202400000340343001F
:10035000440043002000520053002D0032003300BF
:100360003200200045006D0075006C0061007400D3
:1003700069006F006E002000440065006D006F0092
:1003800034034D006900630072006F006300680071
:1003900069007000200054006500630068006E0072
:1003A0006F006C006F0067007900200049006E004C
:1003B00063002E001201000202000008D8040A00A7
:0B03C000000101020001040309040019
:1003CC0002013205D8A4EDEF01F0EFEF01F009EFD7
:1003DC0002F030511F0B0009D8A4F7EF01F0F9EF30
:1003EC0001F009EF02F00C8E030E3119D8A401EFC5
:1003FC0002F003EF02F007EF02F0010E326E09EF8C
:10040C0002F0000E326E3251D8A40FEF02F011EF51
:10041C0002F08DEF03F030511F0B020AD8A419EF34
:10042C0002F01BEF02F08DEF03F034510F0B0009BB
:10043C00D8B423EF02F025EF02F08DEF03F0345126
:10044C000F0B526E030E52602EEF02F030EF02F0E3
:10045C008DEF03F0200E3718D8A437EF02F039EFE8
:10046C0002F08DEF03F00C8E34BF3FEF02F041EF42
:10047C0002F05EEF02F034510F0B526E5250020D2F
:10048C006A0EF324D96E000EF420DA6EDECF57F02C
:10049C00DDCF58F034510F0B526E536A7E0E52243E
:1004AC00D96E000E5320DA6EDF50566E79EF02F0E3
:1004BC0034510F0B526E5250020D0F0EF324D96EA5
:1004CC00000EF420DA6EDECF57F0DDCF58F0345149
:1004DC000F0B526E536A150E5224D96E000E532018
:1004EC00DA6EDF50566E56B07EEF02F080EF02F0FF
:1004FC0088EF02F0FB0E5714576EFF0E5814586E0F
:10050C008DEF02F0040E5710576E5850586E34BFD2
:10051C0092EF02F094EF02F0A5EF02F034510F0BC2
:10052C00526E5250020D6A0EF324D96E000EF42056
:10053C00DA6E57C0DEFF58C0DDFFB4EF02F0345165
:10054C000F0B526E5250020D0F0EF324D96E000E8B
:10055C00F420DA6E57C0DEFF58C0DDFF030E3119F0
:10056C00D8A4BBEF02F0BDEF02F0F6EF02F057C0DB
:10057C00D9FF58C0DAFFDFAEC6EF02F0C8EF02F0C9
:10058C00E8EF02F034BFCDEF02F0CFEF02F0DDEF79
:10059C0002F034510F0B526E536A7E0E5224D96EF8
:1005AC00000E5320DA6E0001DF82E8EF02F03451C6
:1005BC000F0B526E536A150E5224D96E000E532037
:1005CC00DA6EDF8257C0D9FF58C0DAFF000EDB8429
:1005DC0057C0D9FF58C0DAFF000EDB8E8DEF03F049
:1005EC00040E5718576E5850586E57C0D9FF58C044
:1005FC00DAFFDFAE04EF03F006EF03F022EF03F0B7
:10060C0057C0D9FF58C0DAFF7F0EDF1657C0D9FF8D
:10061C0058C0DAFF000EDB8C000E4B6E050E4A6ED6
:10062C0057C04CF058C04DF0000E4F6E020E4E6E7F
:10063C00A4EC0EF028EF03F057C0D9FF58C0DAFF36
:10064C00000EDB8C040E5718576E5850586E56B26D
:10065C0032EF03F034EF03F03FEF03F057C0D9FF54
:10066C0058C0DAFFDFAE3DEF03F03FEF03F076EF5B
:10067C0003F0020134BF45EF03F047EF03F055EFF1
:10068C0003F034510F0B526E536A7E0E5224D96E06
:10069C00000E5320DA6E0001DF9260EF03F034514C
:1006AC000F0B526E536A150E5224D96E000E532046
:1006BC00DA6EDF9257C0D9FF58C0DAFF3B0EDF1657
:1006CC00000E4B6E050E4A6E57C04CF058C04DF0E4
:1006DC00000E4F6E020E4E6EA4EC0EF07CEF03F08B
:1006EC0057C0D9FF58C0DAFF3B0EDF160201345158
:1006FC000F0B526E536A530E5224546E0F0E53202E
:10070C00556E54C0D9FF55C0DAFFFE0EDF1612002D
:10071C003750D8A494EF03F096EF03F0ADEF03F04D
:10072C00000E646E000E606E160E616E9F0E0F0151
:10073C005B6F7B0E606EA4EF03F0648664A6A9EF7A
:10074C0003F0ABEF03F0A3EF03F0010E376E3704A9
:10075C00D8A4B3EF03F0B5EF03F0C4EF03F064BA21
:10076C00BAEF03F0BCEF03F0C4EF03F0000E626EBF
:10077C00000E606E60806088020E376E62A4C9EF56
:10078C0003F0CBEF03F0D5EF03F060A4D0EF03F050
:10079C00D2EF03F0D5EF03F06294BCEC11F064A23D
:1007AC00DAEF03F0DCEF03F0DFEF03F0A194C1EF1D
:1007BC0004F062A0E4EF03F0E6EF03F0F2EF03F0D5
:1007CC0060A0EBEF03F0EDEF03F0F2EF03F0EDECD4
:1007DC0006F0040E376E629062A8F7EF03F0F9EFA3
:1007EC0003F002EF04F060A8FEEF03F000EF04F05A
:1007FC0002EF04F028EC12F062AC07EF04F009EF02
:10080C0004F034EF04F060AC0EEF04F010EF04F0E1
:10081C001EEF04F0000E4B6E730E4A6E000E4C6E03
:10082C00000E4D6E000E4F6E010E4E6EA4EC0EF0CF
:10083C00629CF7EC11F02E50D8B427EF04F029EF9E
:10084C0004F02AEF04F02E062E50D8A430EF04F05A
:10085C0032EF04F034EF04F006EC0DF062AA39EF3D
:10086C0004F03BEF04F044EF04F060AA40EF04F016
:10087C0042EF04F044EF04F02BEC10F062A249EFCD
:10088C0004F04BEF04F062EF04F060A250EF04F0C0
:10089C0052EF04F062EF04F07F0E4B6E4A68000ECC
:1008AC004C6E000E4D6E000E4F6E010E4E6EA4EC93
:1008BC000EF0000E0F015F6F040E376068EF04F04E
:1008CC006AEF04F06DEF04F0A194C1EF04F060A6A0
:1008DC0072EF04F074EF04F0C0EF04F0000E5C6EE5
:1008EC0062A67BEF04F07DEF04F0C0EF04F063CF61
:1008FC003AF03A30E832E8320F0B306E62963AB486
:10090C008AEF04F08CEF04F096EF04F07E0E3024A6
:10091C00D96EDA6A000EDA220001DF709DEF04F066
:10092C00150E3024D96EDA6A000EDA22DF703050E0
:10093C00D8A4A3EF04F0A5EF04F0A9EF04F0EEECBB
:10094C000DF0B7EF04F0000E4B6E720E4A6E3A0EBD
:10095C004C6E000E4D6E000E4F6E000E4E6EA4ECE3
:10096C000EF05C2A030E5C64BEEF04F0C0EF04F0E2
:10097C0076EF04F0A194120018501910D8B4C9EFF6
:10098C0004F0CBEF04F0D8EF04F018C0D9FF19C075
:10099C00DAFFDFAED4EF04F0D6EF04F0D8EF04F0BA
:1009AC0089EF05F0030E3618D8A4DFEF04F0E1EF61
:1009BC0004F0E3EF04F0000E366E3650D8A4E9EFE5
:1009CC0004F0EBEF04F0EDEF04F089EF05F0020E0C
:1009DC003618D8A4F4EF04F0F6EF04F009EF05F0A4
:1009EC00010E3C6E000E3D6E000E3E6E000E3F6E14
:1009FC00020ED0EC08F03CC018F03DC019F0030E0C
:100A0C00366E89EF05F03604D8A40FEF05F011EF20
:100A1C0005F089EF05F0400E266417EF05F019EF8D
:100A2C0005F01DEF05F0400E486E1FEF05F026C0D7
:100A3C0048F04850265C266E400E0001786F020E7E
:100A4C00796F48C047F02550D8A42FEF05F031EF4F
:100A5C0005F05BEF05F042EF05F07BC0D9FF7CC0E1
:100A6C00DAFF78C0E1FF79C0E2FFDFCFE7FF784B18
:100A7C00792B7B4B7C2B47064750D8A448EF05F0CD
:100A8C004AEF05F033EF05F063EF05F07BC0D9FFBB
:100A9C007CC0DAFF78C0E1FF79C0E2FFDFCFE7FF6F
:100AAC00784B792B7B4B7C2B47064750D8A461EFB6
:100ABC0005F063EF05F04CEF05F02650D8A469EF74
:100ACC0005F06BEF05F07AEF05F0400E4818D8A44E
:100ADC0072EF05F074EF05F078EF05F0020E366E4C
:100AEC007AEF05F0030E366E010E3C6E400E3D6E35
:100AFC00020E3E6E48C03FF0020ED0EC08F03CC037
:100B0C0018F03DC019F012003CC046F03DC047F053
:100B1C0040504110D8A495EF05F097EF05F099EFF0
:100B2C0005F044EF06F046C0D9FF47C0DAFF3EC0DF
:100B3C00DFFF40504624426E41504720436EFF0E6B
:100B4C004224D96EFF0E4320DA6E3EC0DFFF4150C7
:100B5C0007E1030E405CD8B0B6EF05F0B8EF05F036
:100B6C00BAEF05F044EF06F020EE01F04650D9261E
:100B7C004750DA223EC0DFFF20EE02F04650D92665
:100B8C004750DA223EC0DFFF40504624426E4150AF
:100B9C004720436EFE0E4224D96EFF0E4320DA6EC0
:100BAC003EC0DFFF40504624426E41504720436E0A
:100BBC00FD0E4224D96EFF0E4320DA6E3EC0DFFFDD
:100BCC00415007E1070E405CD8B0EFEF05F0F1EFB4
:100BDC0005F0F3EF05F044EF06F020EE03F046507D
:100BEC00D9264750DA223EC0DFFF40504624426EE1
:100BFC0041504720436EFC0E4224D96EFF0E432019
:100C0C00DA6E3EC0DFFF415007E1090E405CD8B000
:100C1C0012EF06F014EF06F016EF06F044EF06F0B4
:100C2C0046C042F047C043F0421E431E424A432A8C
:100C3C00030E4214446E456A4450462645504722E2
:100C4C004450405E4550415AFC0E4016FF0E411672
:100C5C003BEF06F046C0D9FF47C0DAFF3EC0DFFFCE
:100C6C004006D8A04106464A472A40504110D8A415
:100C7C0042EF06F044EF06F030EF06F01200800E63
:100C8C0002013019D8A44DEF06F04FEF06F0ECEF4F
:100C9C0006F0C00E0C6ED3EF06F0B40E096E030E08
:100CAC000A6E000E0E6E120E0D6EECEF06F0325147
:100CBC00D8A463EF06F065EF06F0A3EF06F032510F
:100CCC00020D070EF324F66E030EF420F76E0900E6
:100CDC00F5CF09F00A00F5CF0AF0020E09243C6E9C
:100CEC00000E0A203D6E3CC0F6FF3DC0F7FFF86ACF
:100CFC00020EF76403D00800F55005D0F6CFE9FFDB
:100D0C00F7CFEAFFEF500D6E030E09243C6E000E78
:100D1C000A203D6E3CC0F6FF3DC0F7FFF86A020E9C
:100D2C00F76403D00800F55005D0F6CFE9FFF7CFF4
:100D3C00EAFFEF500E6EECEF06F0000E0C6EECEFCF
:100D4C0006F0030E3261ADEF06F0AFEF06F0A3EF45
:100D5C0006F03251020D010EF324F66E030EF42050
:100D6C00F76E0900F5CF09F00A00F5CF0AF009C0BB
:100D7C00F6FF0AC0F7FFF86A020EF76403D008000A
:100D8C00F55005D0F6CFE9FFF7CFEAFFEF503C6EF8
:100D9C003C500D6E0E6AECEF06F033513C6E3D6A22
:100DAC003D50000AD8B4DDEF06F0A3EF06F03C503E
:100DBC00010AD8B453EF06F0030AD8B45DEF06F07D
:100DCC00010AD8B4A7EF06F0A3EF06F01200A09426
:100DDC00000E0F015F6F000E626E000E536F540E0B
:100DEC003C6E0F0E3D6E000E3F6E000E3E6E000E02
:100DFC00416E020E406E8AEC05F0160E616E9F0E6F
:100E0C000F015B6F7B0E606E000E486E4850040D38
:100E1C00000EF324D96E020EF420DA6EDE6ADE6A5E
:100E2C00DE6ADD6A482A0B0E48641FEF07F021EFDB
:100E3C0007F00CEF07F0648C000E0F015C6F6498E8
:100E4C00649C6296000E0C6E000E046E000E066E14
:100E5C00000E056E62B635EF07F037EF07F027EF9F
:100E6C0007F0010E2C6E010E2B6E000E2A6E000E7A
:100E7C00296E000E316E000E486E4850020D0F0E9A
:100E8C00F324D96E000EF420DA6EDE6ADD6A485067
:100E9C00020D6A0EF324D96E000EF420DA6EDE6AAF
:100EAC00DD6A150E4824D96EDA6A000EDA22DF6A82
:100EBC007E0E4824D96EDA6A000EDA22DF6A482ADE
:100ECC00020E48646CEF07F06EEF07F043EF07F08B
:100EDC00080E0F6E020E106E160E0F01536F020EDF
:100EEC000201036F300E026F080E016F040E006FCB
:100EFC00008F000E3B6E000E0001746F000E756FBC
:100F0C00000E766F000E776F000E286E000E376E97
:100F1C00120020EE01F02050D9262150DA22DF50A9
:100F2C003D6E3D50055C000E0658D8B0A0EF07F0A2
:100F3C00A2EF07F0A4EF07F005C03DF03D50055EB1
:100F4C00000E065A000E3C6EBBEF07F0380E3C2428
:100F5C00D96EDA6A020EDA2201C0E1FF02C0E2FFAA
:100F6C00DFCFE7FF014A022A3C2A3D503C5CD8A067
:100F7C00C2EF07F0C4EF07F0ACEF07F00550061016
:100F8C00D8B4CBEF07F0CDEF07F006EF08F020EE6A
:100F9C0001F01E50D9261F50DA22080EDF6E20EE0B
:100FAC0002F01E50D9261F50DA22380EDE6E020EC9
:100FBC00DD6E20C0D9FF21C0DAFFDFBCE8EF07F0FF
:100FCC00EAEF07F0F8EF07F01EC0D9FF1FC0DAFFF9
:100FDC00480EDF6E1EC0D9FF1FC0DAFF000EDB8E7D
:100FEC002FEF08F01EC0D9FF1FC0DAFF080EDF6E0E
:100FFC001EC0D9FF1FC0DAFF000EDB8E2FEF08F0EA
:10100C0020EE01F01E50D9261F50DA22080EDF6E9A
:10101C0020EE02F01E50D9261F50DA22300EDE6E62
:10102C00020EDD6E1EC0D9FF1FC0DAFF040EDF6E8C
:10103C001EC0D9FF1FC0DAFF000EDB8E049E2D50A0
:10104C00D8A42BEF08F02DEF08F02FEF08F006ECEA
:10105C000DF0120064980CBE36EF08F038EF08F073
:10106C007DEF08F004AE3DEF08F03FEF08F051EFD4
:10107C0008F0020E336E2950D8A447EF08F049EF60
:10108C0008F04BEF08F054EC0FF0000E2B6E000E36
:10109C002C6ECFEF08F020EE01F01E50D9261F5019
:1010AC00DA22080EDF6E20EE02F01E50D9261F50F9
:1010BC00DA22300EDE6E020EDD6E1EC0D9FF1FC0AE
:1010CC00DAFF0C0EDF6E1EC0D9FF1FC0DAFF000E58
:1010DC00DB8E0FC0D9FF10C0DAFF040EDF6E0FC01D
:1010EC00D9FF10C0DAFF000EDB8ECFEF08F0020143
:1010FC0030AF83EF08F085EF08F0A1EF08F0010E98
:10110C00336E2A50D8A48DEF08F08FEF08F091EFD2
:10111C0008F054EC0FF0000E2B6E000E2C6E2D50C0
:10112C00D8A49BEF08F09DEF08F0CFEF08F006EC89
:10113C000DF0CFEF08F0020E336E20EE01F01E50D2
:10114C00D9261F50DA22080EDF6E20EE02F01E5058
:10115C00D9261F50DA22300EDE6E020EDD6E1EC056
:10116C00D9FF1FC0DAFF040EDF6E1EC0D9FF1FC0EF
:10117C00DAFF000EDB8E000E2B6E000E2C6E2D5047
:10118C00D8A4CBEF08F0CDEF08F0CFEF08F09DEF2F
:10119C0008F01200446E3C50D8B4D7EF08F0D9EFE9
:1011AC0008F0E7EF08F04450020D0F0EF324D96E4F
:1011BC00000EF420DA6EDECF45F0DDCF46F0F3EF13
:1011CC0008F04450020D6A0EF324D96E000EF42080
:1011DC00DA6EDECF45F0DDCF46F045504610D8A490
:1011EC00FAEF08F0FCEF08F002EF09F0000E3C6E8D
:1011FC00000E3D6E6EEF09F020EE02F04550D92640
:10120C004650DA223DC0DEFF3EC0DDFF20EE01F08D
:10121C004550D9264650DA223FC0DFFF45C0D9FFE2
:10122C0046C0DAFF400EDF1645C0D9FF46C0DAFFD4
:10123C00000EDB8645C0D9FF46C0DAFF000EDB8E00
:10124C003C50D8B42CEF09F02EEF09F04DEF09F01B
:10125C004450020D0F0EF324D96E000EF420DA6EFA
:10126C00DECF40F0DDCF41F0040E4018426E41500D
:10127C00436E4450020D0F0EF324D96E000EF42071
:10128C00DA6E42C0DEFF43C0DDFF6AEF09F0445066
:10129C00020D6A0EF324D96E000EF420DA6EDECF46
:1012AC0040F0DDCF41F0040E4018426E4150436EC9
:1012BC004450020D6A0EF324D96E000EF420DA6E3F
:1012CC0042C0DEFF43C0DDFF45C03CF046C03DF0F0
:1012DC001200000E0201386F000E396FD1EF09F0C9
:1012EC000C8E3204D8A47DEF09F07FEF09F0EBEF00
:1012FC0009F03883EBEF09F00C8EEBEF09F00C8E54
:10130C0034510F0B0009D8B48EEF09F090EF09F0AF
:10131C00EBEF09F034BF95EF09F097EF09F0A8EF68
:10132C0009F034510F0B3C6E3C50020D6A0EF32445
:10133C00D96E000EF420DA6EDECF3EF0DDCF3FF03A
:10134C00B7EF09F034510F0B3C6E3C50020D0F0EF1
:10135C00F324D96E000EF420DA6EDECF3EF0DDCF32
:10136C003FF03EC0D9FF3FC0DAFFDFAEC0EF09F05F
:10137C00C2EF09F0EBEF09F03EC0D9FF3FC0DAFF36
:10138C00DFA4CBEF09F0CDEF09F0EBEF09F0010E84
:10139C00386FEBEF09F030511F0B3C6E3D6A3D503E
:1013AC00000AD8B4DCEF09F0EBEF09F03C50000A6E
:1013BC00D8B476EF09F0010AD8B482EF09F0030A29
:1013CC00D8B485EF09F0EBEF09F00CAEF0EF09F0B3
:1013DC00F2EF09F0F9EF09F0380E096E020E0A6E01
:1013EC000C80020E0D6E120002013039E832030B34
:1013FC000009D8B404EF0AF006EF0AF04AEF0AF03D
:10140C0083EF0AF00C8E080E376E83EF0AF045EC72
:10141C0006F083EF0AF07DEC0DF083EF0AF03B0E43
:10142C00096E000E0A6E0C80010E0D6E0C8E83EF91
:10143C000AF06FEC09F083EF0AF0E6EC01F083EFB1
:10144C000AF0380E3425096E0A6A000E0A2219EFCA
:10145C000AF00C8E380E3425D96EDA6A000EDA22B8
:10146C0032C2DFFF83EF0AF0000E4B6E020E4A6EA3
:10147C00000E4C6E000E4D6E000E4F6E000E4E6E3A
:10148C00A4EC0EF083EF0AF03151596E5A6A5A509F
:10149C00000AD8B454EF0AF083EF0AF05950000A4E
:1014AC00D8B41FEF0AF0010AD8B423EF0AF0020AED
:1014BC00D8B423EF0AF0060AD8B408EF0AF0030AEE
:1014CC00D8B40DEF0AF0010AD8B43AEF0AF00F0ABB
:1014DC00D8B415EF0AF0010AD8B411EF0AF0030AD8
:1014EC00D8B427EF0AF0010AD8B42FEF0AF0070A94
:1014FC00D8B483EF0AF083EF0AF01200080E3C6EAA
:10150C000E5007E1080E0D5CD8B08FEF0AF091EF8A
:10151C000AF0A9EF0AF00DC03CF03450D8A499EFB2
:10152C000AF09BEF0AF09FEF0AF0010E346EA9EF60
:10153C000AF03404D8A4A5EF0AF0A7EF0AF0A9EF3B
:10154C000AF0020E346E3C500D5E000E0E5A20EE68
:10155C0001F00F50D9261050DA223CC0DFFF380EB4
:10156C001C6E020E1D6E0CB0BEEF0AF0C0EF0AF03E
:10157C0000EF0BF0DCEF0AF009C0F6FF0AC0F7FF32
:10158C00F86A1CC0D9FF1DC0DAFF020EF76403D045
:10159C000800F55005D0F6CFE9FFF7CFEAFFEF5082
:1015AC00DF6E094A0A2A1C4A1D2A3C063C50D8A464
:1015BC00E2EF0AF0E4EF0AF0C2EF0AF008EF0BF0EA
:1015CC0009C0F6FF0AC0F7FFF86A1CC0D9FF1DC09E
:1015DC00DAFF020EF76403D00800F55005D0F6CF01
:1015EC00E9FFF7CFEAFFEF50DF6E094A0A2A1C4ADF
:1015FC001D2A3C063C50D8A406EF0BF008EF0BF06C
:10160C00E6EF0AF012000FC0D9FF10C0DAFF000E8F
:10161C00DFBC010E3D6E040E0F180F6E1050106ED5
:10162C00080E3718D8A41DEF0BF01FEF0BF032EF9C
:10163C000BF0020132517F0B0F015C6F5C51D8B47F
:10164C002AEF0BF02CEF0BF030EF0BF0100E376E87
:10165C0032EF0BF0040E376E3304D8A438EF0BF0D6
:10166C003AEF0BF081EF0BF020EE02F00F50D92681
:10167C001050DA22380EDE6E020EDD6E84EC0AF0AB
:10168C00020E3418D8A44DEF0BF04FEF0BF05DEFBA
:10169C000BF00FC0D9FF10C0DAFF040EDF6E0FC0C5
:1016AC00D9FF10C0DAFF000EDB8E8BEF0BF03D5034
:1016BC00D8A463EF0BF065EF0BF073EF0BF00FC0DA
:1016CC00D9FF10C0DAFF480EDF6E0FC0D9FF10C073
:1016DC00DAFF000EDB8E8BEF0BF00FC0D9FF10C0C2
:1016EC00DAFF080EDF6E0FC0D9FF10C0DAFF000E54
:1016FC00DB8E8BEF0BF004AE86EF0BF088EF0BF06C
:10170C0089EF0BF0049E000E336E12000201305173
:10171C001F0BE806D8B495EF0BF097EF0BF099EF91
:10172C000BF00BEF0CF03039E832030BE806D8B4B1
:10173C00A2EF0BF0A4EF0BF0A6EF0BF00BEF0CF0FD
:10174C003451D8B4ACEF0BF0AEEF0BF0EAEF0BF07A
:10175C003405D8B4B4EF0BF0B6EF0BF0EAEF0BF0A6
:10176C000BEF0CF0C10E096E000E0A6E000E0E6E21
:10177C00080E0D6E0C800C8E0BEF0CF0C10E096E6A
:10178C00000E0A6EC1EF0BF036C205F037C206F040
:10179C00C90E016E000E026E000E076E000E086E72
:1017AC00048E0BEF0CF0C90E096E000E0A6E000EC3
:1017BC000E6E070E0D6EC10E0C6E0BEF0CF032C2DE
:1017CC0024F00C8E0BEF0CF031513C6E3D6A3D5009
:1017DC00000AD8B4F4EF0BF00BEF0CF03C50000AFD
:1017EC00D8B4B8EF0BF0010AD8B4C4EF0BF0210A4F
:1017FC00D8B4CAEF0BF0010AD8B4D9EF0BF0030A36
:10180C00D8B4E5EF0BF00BEF0CF012001F0E3764A1
:10181C0012EF0CF014EF0CF08BEF0CF064A219EF3C
:10182C000CF01BEF0CF01DEF0CF08BEF0CF03650A6
:10183C00D8A423EF0CF025EF0CF089EF0CF0000E80
:10184C00476E010E486E400E496E4AEC0EF04D6E1E
:10185C004D50D8B434EF0CF036EF0CF089EF0CF09F
:10186C00000E4E6E78EF0CF0000E4E24D96EDA6A34
:10187C00010EDA22400E4E24E16EE26A010EE222E3
:10188C00DFCFE7FF77EF0CF0400E4E24D96EDA6A0B
:10189C00010EDA22000E4E24E16EE26A010EE22203
:1018AC00E7504B6E4B28DF6E77EF0CF0000E4E249A
:1018BC00D96EDA6A010EDA22DF504B6E4C6A4C504C
:1018CC00000AD8B46CEF0CF04AEF0CF04B500A0A3B
:1018DC00D8B43AEF0CF0070AD8B43AEF0CF04AEF50
:1018EC000CF04E2A4D504E5CD8A07FEF0CF081EFDF
:1018FC000CF05CEF0CF0400E3C6E010E3D6E4DC0DA
:10190C003EF03EEC12F0C2EC04F0120064A291EF37
:10191C000CF093EF0CF0F2EF0CF0010EEFEC10F07A
:10192C0005EF0DF022042310D8A49FEF0CF0A1EFCB
:10193C000CF0A6EF0CF0010EBEEC10F003EF0DF066
:10194C004B0E22182310D8A4AEEF0CF0B0EF0CF015
:10195C00B5EF0CF0010EEFEC10F003EF0DF023508F
:10196C0009E1970E225CD8A0BEEF0CF0C0EF0CF092
:10197C00C6EF0CF0000E236E000E226E03EF0DF07E
:10198C0003EF0DF022042310D8A4CFEF0CF0D1EF0D
:10199C000CF0D6EF0CF0010EBEEC10F003EF0DF0D6
:1019AC00320E22182310D8A4DEEF0CF0E0EF0CF06E
:1019BC00E5EF0CF0010EEFEC10F003EF0DF0B70EAD
:1019CC00225C030E2358D8A0EEEF0CF0F0EF0CF0D5
:1019DC0003EF0DF0C0EF0CF037503F6E406A4050F3
:1019EC00000AD8B4FCEF0CF0C8EF0CF03F50200A02
:1019FC00D8B498EF0CF0C8EF0CF0224A232A12004E
:101A0C002C50D8A40CEF0DF00EEF0DF07CEF0DF078
:101A1C00010E2C6E2B50D8A416EF0DF018EF0DF014
:101A2C007CEF0DF0010E2B6E020E3318D8A421EFB3
:101A3C000DF023EF0DF038EF0DF020EE01F00F500C
:101A4C00D9261050DA22DF6A0FC0D9FF10C0DAFF96
:101A5C00480EDF6E0FC0D9FF10C0DAFF000EDB8E10
:101A6C007CEF0DF03304D8A43EEF0DF040EF0DF0F9
:101A7C007CEF0DF0000E2F6E20EE01F02050D926D9
:101A8C002150DA22080EDF6E20EE02F02050D9260B
:101A9C002150DA22300EDE6E020EDD6E20C0D9FF30
:101AAC0021C0DAFF040EDF6E20C0D9FF21C0DAFF9F
:101ABC00000EDB8E010E2F6E20EE01F01E50D9268B
:101ACC001F50DA22080EDF6E20EE02F01E50D926CF
:101ADC001F50DA22300EDE6E020EDD6E1EC0D9FFF4
:101AEC001FC0DAFF800EDF6E7CEF0DF012000C8E43
:101AFC00540E3C6E0F0E3D6E000E3F6E000E3E6E91
:101B0C00000E416E020E406E8AEC05F0000E3C6E2B
:101B1C00020E3D6E000E3F6E000E3E6E000E416ECC
:101B2C00300E406E8AEC05F0648C000E526E150E71
:101B3C005224D96EDA6A000EDA22DF6A7E0E522443
:101B4C00D96EDA6A000EDA22DF6A522A020E526469
:101B5C00B2EF0DF0B4EF0DF09DEF0DF0380E3C6EC2
:101B6C00000E3D6E000E3F6E000E3E6E000E416E7E
:101B7C00020E406E8AEC05F0649C080E0F6E020E8D
:101B8C00106E000E206E020E216E20C01EF021C0C1
:101B9C001FF032C23BF03B50D8A4D7EF0DF0D9EF79
:101BAC000DF0DDEF0DF0100E376EEDEF0DF0000EB9
:101BBC004B6E010E4A6E3B0E4C6E000E4D6E000EBF
:101BCC004F6E010E4E6EA4EC0EF0200E376E12000E
:101BDC002D0E2E6E3AC05BF0FD0E5B16D8A4F9EFFD
:101BEC000DF0FBEF0DF03DEF0EF03AC05BF0D8902E
:101BFC005B323F0E5B165B50040D000EF324206E1F
:101C0C00020EF420216E20C01EF021C01FF0040E25
:101C1C001E181E6E1F501F6E20C0D9FF21C0DAFF88
:101C2C00DF30E8320F0B0D0AD8A41FEF0EF021EFB6
:101C3C000EF039EF0EF0300E3C6E020E3D6E20EEC3
:101C4C0002F02050D9262150DA22DECF3EF0DDCF33
:101C5C003FF0000E416E080E406E49EC11F0AAECFC
:101C6C000FF049EF0EF0F1EC0FF049EF0EF03A5097
:101C7C00FD0B040AD8A445EF0EF047EF0EF049EF28
:101C8C000EF009EC0BF01200000E276E1A501B1010
:101C9C00D8B453EF0EF055EF0EF060EF0EF01AC003
:101CAC00D9FF1BC0DAFFDFBE5EEF0EF060EF0EF067
:101CBC00A2EF0EF020EE01F01A50D9261B50DA22BA
:101CCC004950DE5CD8B06DEF0EF06FEF0EF077EF91
:101CDC000EF020EE01F01A50D9261B50DA22DF50FC
:101CEC00496E000E276E8AEF0EF0800E2724D96EF7
:101CFC00DA6A020EDA2227504724E16E000E4820E1
:101D0C00E26EDFCFE7FF272A4950275CD8A091EF7E
:101D1C000EF093EF0EF07BEF0EF0000E3C6E800E8B
:101D2C003D6E020E3E6E400E3F6E020ED0EC08F081
:101D3C003CC01AF03DC01BF027501200C2EF0EF051
:101D4C008CEC0CF0FBEF0EF08CEC0CF0010E97EC25
:101D5C0011F0FBEF0EF08CEC0CF0020E97EC11F086
:101D6C00FBEF0EF08DEC10F051EC12F0FBEF0EF0DF
:101D7C008CEC0BF0FBEF0EF04AC050F04BC051F066
:101D8C005150000AD8B4D1EF0EF07F0AD8B4F4EF5A
:101D9C000EF0FBEF0EF05050010AD8B4B8EF0EF075
:101DAC00030AD8B4FBEF0EF0010AD8B4BEEF0EF064
:101DBC00060AD8B4FBEF0EF0770AD8B4FBEF0EF09E
:101DCC00010AD8B4A6EF0EF0070AD8B4B1EF0EF0A2
:101DDC00010AD8B4AAEF0EF0FBEF0EF05050FF0A38
:101DEC00D8B4FBEF0EF0FBEF0EF01200436E000EBA
:101DFC00446E020E456E3C503D6E3E6AD8903D36A8
:101E0C003E3643503F6E406AD8903F364036D890AD
:101E1C003F3640363D503F24416E3E504020426E8E
:101E2C00D89041364236D8904136423641504426FD
:101E3C004250452244C0D9FF45C0DAFFDF9E3C50DA
:101E4C00D8A42BEF0FF02DEF0FF03BEF0FF043501A
:101E5C00020D6A0EF324D96E000EF420DA6E44C023
:101E6C00DEFF45C0DDFF47EF0FF04350020D0F0EB4
:101E7C00F324D96E000EF420DA6E44C0DEFF45C0A8
:101E8C00DDFF44C0D9FF45C0DAFFDF9C20EE04F033
:101E9C004450D9264550DA22DF8C1200000E2A6EEF
:101EAC00000E296E020E3318D8A45FEF0FF061EF0D
:101EBC000FF081EF0FF020EE01F01E50D9261F50CD
:101ECC00DA22080EDF6E20EE02F01E50D9261F50CB
:101EDC00DA22380EDE6E020EDD6E1EC0D9FF1FC078
:101EEC00DAFF480EDF6E1EC0D9FF1FC0DAFF000EEE
:101EFC00DB8EA9EF0FF00D500201365D0E503759F5
:101F0C00D8B08BEF0FF08DEF0FF091EF0FF036C2D2
:101F1C000DF037C20EF084EC0AF020EE02F00F50F8
:101F2C00D9261050DA22380EDE6E020EDD6E0FC08E
:101F3C00D9FF10C0DAFF480EDF6E0FC0D9FF10C0FA
:101F4C00DAFF000EDB8E1200000E346E000E2D6ECA
:101F5C00000E2A6E000E296E000E2F6E000E336ED0
:101F6C000FC0D9FF10C0DAFF7F0EDF16040E0F185A
:101F7C000F6E1050106E0FC0D9FF10C0DAFF7F0E1D
:101F8C00DF16040E0F180F6E1050106E1EC0D9FF06
:101F9C001FC0DAFF7F0EDF16000E0C6E000E0E6EE9
:101FAC00000E0D6E000E046E000E066E000E056E19
:101FBC00FAEC09F0000E4B6E030E4A6E000E4C6EDE
:101FCC00000E4D6E000E4F6E000E4E6EA4EC0EF019
:101FDC0030EC08F01200020E3318D8A4F8EF0FF012
:101FEC00FAEF0FF0FEEF0FF08FEC07F02AEF10F086
:101FFC00000E336E2F50D8A406EF10F008EF10F03F
:10200C0028EF10F020EE01F01E50D9261F50DA22D6
:10201C00080EDF6E20EE02F01E50D9261F50DA2279
:10202C00300EDE6E020EDD6E1EC0D9FF1FC0DAFF51
:10203C000C0EDF6E1EC0D9FF1FC0DAFF000EDB8E48
:10204C002AEF10F0000E2F6E12000F0153A131EF8A
:10205C0010F033EF10F05AEF10F020C0D9FF21C070
:10206C00DAFF800EDE18D8A43EEF10F040EF10F02F
:10207C0059EF10F00FC0D9FF10C0DAFF840EDE1834
:10208C00D8A44BEF10F04DEF10F059EF10F020C02A
:10209C00D9FF21C0DAFF0C0EDF6E20C0D9FF21C0A2
:1020AC00DAFF000EDB8E5391629A12003E6E6BEFDC
:1020BC0010F094908CEF10F094928CEF10F09494AC
:1020CC008CEF10F094968CEF10F03E503C6E3D6A05
:1020DC003D50000AD8B475EF10F08CEF10F03C5066
:1020EC00000AD8B48CEF10F0010AD8B45FEF10F0EE
:1020FC00030AD8B462EF10F0010AD8B465EF10F0FF
:10210C00070AD8B468EF10F08CEF10F01200000E34
:10211C000001C96F4B0ECA6F000ECB6F000ECC6F57
:10212C00000ECD6F000ECE6F080ECF6F000E276E17
:10213C001A0E466E010E71EC11F01E0E466E020E5A
:10214C0071EC11F0000E3C6E800E3D6E020E3E6E78
:10215C00400E3F6E020ED0EC08F03CC01AF03DC0B1
:10216C001BF0000E186E000E196E000E366E12006B
:10217C003E6ECDEF10F08B80EEEF10F08B82EEEF19
:10218C0010F08B84EEEF10F08B86EEEF10F03E50DB
:10219C003C6E3D6A3D50000AD8B4D7EF10F0EEEF1C
:1021AC0010F03C50000AD8B4EEEF10F0010AD8B48D
:1021BC00C1EF10F0030AD8B4C4EF10F0010AD8B480
:1021CC00C7EF10F0070AD8B4CAEF10F0EEEF10F01A
:1021DC0012003E6EFEEF10F08B901FEF11F08B9201
:1021EC001FEF11F08B941FEF11F08B961FEF11F076
:1021FC003E503C6E3D6A3D50000AD8B408EF11F0D9
:10220C001FEF11F03C50000AD8B41FEF11F0010A77
:10221C00D8B4F2EF10F0030AD8B4F5EF10F0010ABD
:10222C00D8B4F8EF10F0070AD8B4FBEF10F01FEF9A
:10223C0011F01200C60EF66E240EF76E000EF86E3C
:10224C0000EED0F010EE12F00900F5CFEEFFE550E5
:10225C00E150FAE101EE00F0C00EEE6AE806FDE195
:10226C0000EE60F0700EEE6AE806FDE100EE01F0A3
:10227C003B0EEE6AE806FDE15D905D92000EF86E95
:10228C000001DBEF11F03EC044F03FC045F03CC014
:10229C0042F03DC043F063EF11F044C0D9FF45C09C
:1022AC00DAFFDF50466E444A452A42C0D9FF43C08C
:1022BC00DAFF46C0DFFF424A432A4006D8A0410657
:1022CC00402806E14128D8A46EEF11F070EF11F010
:1022DC0053EF11F01200496E46A477EF11F079EF2D
:1022EC0011F07EEF11F0000E3C6E4950FCEC0EF03C
:1022FC0046A283EF11F085EF11F08AEF11F0010E79
:10230C003C6E4950FCEC0EF0530E4924476E486A63
:10231C000F0E482247C0D9FF48C0DAFF46C0DFFF86
:10232C001200416EA2EF11F0010E5CEC10F0010EE8
:10233C0011EC12F0BBEF11F041503F6E406A40506F
:10234C00000AD8B4ACEF11F0BBEF11F03F50000A0B
:10235C00D8B49AEF11F0010AD8B4BBEF11F0030A0C
:10236C00D8B4BBEF11F0BBEF11F01200000E316EC0
:10237C00000E4B6E740E4A6E000E4C6E000E4D6EBF
:10238C00000E4F6E000E4E6EA4EC0EF06492609434
:10239C00D1EF11F0629462B4D6EF11F0D8EF11F0D6
:1023AC00D0EF11F0000E286E1200000ED36E000E4E
:1023BC007E6E000E7F6E000E926E000E936E000EFF
:1023CC00946E000E806E000E816E000E826EEDEC2F
:1023DC0006F08EEC03F00CEC0CF0EFEF11F007EFC5
:1023EC0000F0010E00017427000E7523762377236D
:1023FC003150D8A404EF12F006EF12F010EF12F0E7
:10240C00282A2850D8A40DEF12F00FEF12F010EF7D
:10241C0012F0286812003E6E3E503C6E3D6A3D50F4
:10242C00000AD8B41CEF12F027EF12F03C50000A4F
:10243C00D8B427EF12F0010AD8B427EF12F027EF27
:10244C0012F01200608462986482010E316E000EEC
:10245C00286E000E4B6E750E4A6E000E4C6E000E02
:10246C004D6E000E4F6E000E4E6EA4EC0EF0120070
:10247C003650D8A444EF12F046EF12F050EF12F0A1
:10248C003CC07BF03DC07CF03EC026F0010E256EBA
:10249C00010E366E1200000E0001CD6F080ECF6FCC
:1024AC00000ECE6F800EC96F250ECA6F000ECB6F5B
:1024BC00000ECC6F000E356E1200427574746F6E88
:0C24CC0020707265737365642E0D0A00A9
:020000040020DA
:08000000FFFFFFFFFFFFFFFF00
:020000040030CA
:0E0000000032011EFF0081FF03C003E0034039
:00000001FF
